:100000000C945D000C9485000C9485000C94850084
:100010000C9485000C9485000C9485000C9485004C
:100020000C9485000C9485000C9485000C9485003C
:100030000C9485000C9485000C9485000C9485002C
:100040000C9409050C9485000C9479050C945305C7
:100050000C9485000C9485000C9485000C9485000C
:100060000C9485000C94850000000008000201003B
:100070000003040700000000000000000000000072
:10008000250028002B0000000000240027002A0083
:10009000040404040404040402020202020203032E
:1000A0000303030301020408102040800102040836
:1000B0001020010204081020AB0511241FBECFEF51
:1000C000D8E0DEBFCDBF22E0A0E4B1E001C01D92C8
:1000D000AB30B207E1F711E0A0E0B1E0EEE3FFE002
:1000E00002C005900D92A034B107D9F710E0CDE51C
:1000F000D0E004C02197FE010E949207CC35D107C1
:10010000C9F70E94F5050C949D070C94000090E03F
:10011000FC01EC55FF4F2491FC01E057FF4F849107
:10012000882399F090E0880F991FFC01EA57FF4F50
:10013000A591B491FC01E458FF4F859194918FB73C
:10014000F894EC91E22BEC938FBF089590E0FC01C2
:10015000E859FF4F2491FC01EC55FF4F3491FC010D
:10016000E057FF4FE491EE2309F43CC0222339F11C
:10017000233091F038F42130A9F0223001F584B514
:100180008F7D12C0273091F02830A1F02430B9F4CF
:10019000809180008F7D03C0809180008F77809355
:1001A00080000DC084B58F7784BD09C08091B000F8
:1001B0008F7703C08091B0008F7D8093B000F0E016
:1001C000EE0FFF1FE458FF4FA591B4919FB7F8942D
:1001D000611104C08C913095382302C0EC913E2B04
:1001E0003C939FBF08953FB7F89480914A01909146
:1001F0004B01A0914C01B0914D0126B5A89B05C0C3
:100200002F3F19F00196A11DB11D3FBFBA2FA92F95
:10021000982F8827820F911DA11DB11DBC01CD0112
:1002200042E0660F771F881F991F4A95D1F70895FE
:10023000CF92DF92EF92FF920F931F93CF93DF93B2
:100240006C017A018B01C0E0D0E0CE15DF0581F0B2
:10025000D8016D918D01D601ED91FC910190F08155
:10026000E02DC6010995892B11F02196EECF7E0174
:10027000C701DF91CF911F910F91FF90EF90DF9019
:10028000CF900895FC01538D448D252F30E0842FAD
:1002900090E0821B930B541710F0CF9608950197AE
:1002A0000895FC01918D828D981761F0828DDF0198
:1002B000A80FB11D5D968C91928D9F5F9F73928F59
:1002C00090E008958FEF9FEF08950F931F93CF93C2
:1002D000DF9302E511E0C0E0D0E02FB7F894809101
:1002E0004E0190914F01A0915001B09151012FBF4B
:1002F00080935E0190935F01A0936001B0936101D0
:1003000086E591E00E94510197FF25C02FB7F89430
:1003100080914E0190914F01A0915001B0915101F7
:100320002FBF40915E0150915F016091600170911B
:100330006101841B950BA60BB70B40915A0150919C
:100340005B0160915C0170915D0184179507A607C0
:10035000B707B0F20BC08A30910541F0F8018193E4
:100360008F012196C330D10509F0B7CFCE01DF91BF
:10037000CF911F910F910895FC01918D828D981757
:1003800031F0828DE80FF11D858D90E008958FEF9B
:100390009FEF0895FC01918D228D892F90E0805C64
:1003A0009F4F821B91098F739927089586E591E0ED
:1003B0000E94CA0121E0892B09F420E0822F0895D0
:1003C000FC01848DDF01A80FB11DA35ABF4F2C91F2
:1003D000848D90E001968F739927848FA689B789C1
:1003E0002C93A089B1898C91837080648C93938DB8
:1003F000848D981306C00288F389E02D80818F7D5B
:1004000080830895EF92FF920F931F93CF93DF9312
:10041000EC0181E0888F9B8D8C8D981305C0E88955
:10042000F989808185FD26C0F62E0B8D10E00F5FC7
:100430001F4F0F731127E02E8C8DE8120CC00FB6E2
:1004400007FCFACFE889F989808185FFF5CFCE01D5
:100450000E94E001F1CF8B8DFE01E80FF11DE35A00
:10046000FF4FF0829FB7F8940B8FEA89FB89808158
:1004700080620AC09FB7F894EE89FF896083E8899B
:10048000F98980818370806480839FBF81E090E0E0
:10049000DF91CF911F910F91FF90EF900895CF932F
:1004A000DF93EC01888D8823C9F0EA89FB8980817C
:1004B00085FD05C0A889B9898C9186FD0FC00FB64E
:1004C00007FCF5CF808185FFF2CFA889B9898C918F
:1004D00085FFEDCFCE010E94E001E7CFDF91CF9104
:1004E000089580E090E0892B29F00E94D6018111C7
:1004F0000C9400000895CF93DF93EC0160E08E81AF
:100500000E94A60061E08E810E94A60060E08E81BC
:100510000E94A6008BE891E00197F1F7DF91CF915F
:100520000895CF92DF92EF92FF920F931F93CF9394
:10053000DF936C017C0187E0E80EF11CC0E0D0E0A5
:10054000062F10E0B8010C2E02C0759567950A942D
:10055000E2F76170F70181917F010E94A600219668
:10056000C430D10579F7C601DF91CF911F910F916A
:10057000FF90EF90DF90CF900C947B02CF92DF92B0
:10058000EF92FF920F931F93CF93DF93EC01F62E20
:10059000642F8C810E94A6008D818F3F19F060E04E
:1005A0000E94A6008F850F2D10E084FF25C06E01EC
:1005B00087E0C80ED11CE12CF12CB8010E2C02C032
:1005C000759567950A94E2F76170F60181916F0164
:1005D0000E94A600FFEFEF1AFF0A88E0E816F10478
:1005E00061F7CE01DF91CF911F910F91FF90EF90B6
:1005F000DF90CF900C947B02B80184E075956795ED
:100600008A95E1F7CE010E9491026F2DCE01DF9114
:10061000CF911F910F91FF90EF90DF90CF900C94AE
:10062000910240E0682F83EF91E00C94BE02CF93DB
:10063000DF93823028F0909102029860909302023A
:10064000809306021092070280E48093080280E102
:100650008093090280E580930A028091F7010E944D
:1006600087008091F8018F3F11F00E9487008091F0
:10067000F9010E948700C3EFD1E09E01235F314062
:100680008091020284FD03C084E090E002C088E013
:1006900090E021962817390724F48E810E94870064
:1006A000ECCF8BE39DE00197F1F760E08091F701DB
:1006B0000E94A60060E08091F9010E94A60080914E
:1006C000F8018F3F19F060E00E94A60080910202BD
:1006D00084FD20C063E083EF91E00E949102CBE4AF
:1006E000D6E4CE010197F1F763E083EF91E00E9439
:1006F00091022197F1F763E083EF91E00E9491026C
:1007000083E592E00197F1F762E083EF91E00E94C8
:10071000910215C080620E9411038BE496E4019758
:10072000F1F78091020280620E94110383E592E05A
:100730000197F1F78091020280620E94110380917B
:10074000020280620E94110384E0809303028CE025
:100750000E94110381E00E9411038BE39FE1019746
:10076000F1F782E08093040286E0DF91CF910C9450
:10077000110341E00E94BE0281E090E008950895D7
:1007800080E090E008950E9498076115710579F066
:10079000FB0101900020E9F73197AF01461B570B91
:1007A000DC01ED91FC910280F381E02D099480E061
:1007B00090E008954F925F926F927F928F929F92F6
:1007C000AF92BF92CF92DF92EF92FF920F931F935F
:1007D000CF93DF93CDB7DEB7A1970FB6F894DEBF06
:1007E0000FBECDBF8C016B01770FEE08FF08F7FE3F
:1007F0002FC0DC01ED91FC910190F081E02D6DE2C4
:1008000009955C0122273327A9012C193D094E09BE
:100810005F0919A2FE01B1967F019AE0492E512C81
:10082000612C712CCA01B901A30192010E945C07DD
:10083000605DD7016E937D0121153105410551059C
:1008400089F7BD01C8010E94C5038A0D9B1D1EC00A
:10085000A701960119A2FE01B1967F018AE0882EB8
:10086000912CA12CB12CCA01B901A50194010E94BF
:100870005C07605DD7016E937D012115310541054F
:10088000510589F7BD01C8010E94C503A1960FB6A5
:10089000F894DEBF0FBECDBFDF91CF911F910F91B6
:1008A000FF90EF90DF90CF90BF90AF909F908F9090
:1008B0007F906F905F904F900895CF93DF93BC012E
:1008C00097FD06C083EF91E0DF91CF910C94DA039E
:1008D000EC0141E068E283EF91E00E94BE02BE01BC
:1008E00083EF91E00E94DA0341E069E283EF91E057
:1008F000DF91CF910C94BE020E946501909341015B
:10090000809340016EE171E086E591E00E94C503AD
:10091000609140017091410186E591E00E94DA0307
:1009200063E271E086E591E00E94C50362E571E053
:1009300086E591E00E94C5036CE371E086E591E0F5
:100940000E94C50380914001909141018130910541
:1009500039F480915201082E000C990BC09721C0E8
:100960008230910509F520915201809153012D3279
:1009700039F4082E000C990BC0974FEF5FEF40C081
:10098000022E000C330B205331099AE0929FA001F4
:10099000939F500D1124082E000C990BC097840FC3
:1009A000951F41E050E02CC0039731F58091520132
:1009B0008D3219F44FEF5FEF02C041E050E0E1E00B
:1009C000F0E0E41BF50BF595E795EE5AFE4F20811C
:1009D000022E000C330B205331096AE0629FC001E4
:1009E000639F900D11242181022E000C330B2053A4
:1009F0003109820F931F04C040E050E080E090E096
:100A00009C01249FC001259F900D349F900D1124BF
:100A100008951F920F920FB60F9211242F933F93B8
:100A20008F939F93AF93BF9380914E0190914F010D
:100A3000A0915001B09151013091490123E0230F61
:100A40002D3720F40196A11DB11D05C026E8230F06
:100A50000296A11DB11D2093490180934E019093F0
:100A60004F01A0935001B093510180914A019091A0
:100A70004B01A0914C01B0914D010196A11DB11DFA
:100A800080934A0190934B01A0934C01B0934D0188
:100A9000BF91AF919F918F913F912F910F900FBE7A
:100AA0000F901F9018951F920F920FB60F9211245E
:100AB0002F933F934F935F936F937F938F939F9366
:100AC000AF93BF93EF93FF9386E591E00E94E0011F
:100AD000FF91EF91BF91AF919F918F917F916F9116
:100AE0005F914F913F912F910F900FBE0F901F90EC
:100AF00018951F920F920FB60F9211242F938F9378
:100B00009F93EF93FF93E0916601F09167018081DD
:100B1000E0916C01F0916D0182FD12C09081809195
:100B20006F018F5F8F7320917001821751F0E091F8
:100B30006F01F0E0EA5AFE4F958F80936F0101C07C
:100B40008081FF91EF919F918F912F910F900FBE18
:100B50000F901F901895E6E5F1E01382128288EE5F
:100B600093E0A0E0B0E084839583A683B78384E01C
:100B700091E09183808385EC90E09587848784EC75
:100B800090E09787868780EC90E0918B808B81EC5A
:100B900090E0938B828B82EC90E0958B848B86EC3B
:100BA00090E0978B868B118E128E138E148EE3EF4E
:100BB000F1E01382128286E191E09183808382E0EA
:100BC000848383E0858384E0868385E0878386E071
:100BD000808787E0818788E0828713861486158660
:100BE0001686178681E00C941703789484B582608A
:100BF00084BD84B5816084BD85B5826085BD85B5C1
:100C0000816085BD80916E00816080936E0010923E
:100C100081008091810082608093810080918100B9
:100C2000816080938100809180008160809380004A
:100C30008091B10084608093B1008091B0008160A8
:100C40008093B00080917A00846080937A008091D4
:100C50007A00826080937A0080917A00816080932C
:100C60007A0080917A00806880937A001092C100A7
:100C7000E0916601F091670182E08083E09162017A
:100C8000F09163011082E0916401F09165018FECB5
:100C9000808310926E01E0916A01F0916B0186E011
:100CA0008083E0916801F091690180818061808397
:100CB000E0916801F0916901808188608083E09112
:100CC0006801F0916901808180688083E09168010A
:100CD000F091690180818F7D808382E00E941703FB
:100CE000CBE3DFE186E591E00E94CA011816190600
:100CF0000CF0CBC0809147019091480101969093F0
:100D00004801809347018230910521F118F4019741
:100D100039F095C08330910541F1049779F18FC086
:100D200081E00E941103CE010197F1F7E1E080918B
:100D300006028111E0E0E195F0E0ED50FE4F84897C
:100D400080680E9411030E947C0490934601809366
:100D5000450111C00E9465016091520160934401F8
:100D600083EF91E00E94B9036AC00E947C049093D3
:100D70004301809342010E945D0461C00E946501AD
:100D80006DE383EF91E00E94B903E0910602E23047
:100D900010F4E15001C0E1E0F0E0ED50FE4F848935
:100DA00080680E941103809144018B3211F194F408
:100DB0008A32A9F520914501309146018091420186
:100DC00090914301289FB001299F700D389F700DAD
:100DD00011242DC08D32C1F08F3209F5809145016B
:100DE0009091460160914201709143010E94480731
:100DF0001EC0609145017091460180914201909121
:100E00004301680F791F13C060914501709146013D
:100E10008091420190914301681B790B08C061E207
:100E200072E583EF91E00E94DA0360E070E083EF07
:100E300091E00E94DA0310924801109247010E944B
:100E4000F3006B017C0184E6882E912CA12CB12C3F
:100E50000E94F300DC01CB018C199D09AE09BF098A
:100E6000883E9340A105B10598F321E0821A9108CC
:100E7000A108B10888EEC80E83E0D81EE11CF11C61
:100E800081149104A104B10419F70E9471022ACFC0
:100E900097FB072E16F4009407D077FD09D00E9427
:100EA0007E0707FC05D03EF4909581959F4F0895ED
:100EB000709561957F4F0895A1E21A2EAA1BBB1B66
:100EC000FD010DC0AA1FBB1FEE1FFF1FA217B30716
:100ED000E407F50720F0A21BB30BE40BF50B661F2C
:100EE000771F881F991F1A9469F7609570958095F0
:100EF00090959B01AC01BD01CF010895AA1BBB1BBE
:100F000051E107C0AA1FBB1FA617B70710F0A61B09
:100F1000B70B881F991F5A95A9F780959095BC012A
:100F2000CD010895EE0FFF1F0590F491E02D099477
:0E0F300081E090E0F8940C949D07F894FFCFB8
:100F3E00000000000202180142014F02CA015101D5
:100F4E00BC0100000000B9031801C003BF034765D0
:100F5E007420002063686172732C20637572726551
:100F6E006E74206275666665723A20000D0A000086
:00000001FF
