:100000000C945D000C9485000C9485000C94850084
:100010000C9485000C9485000C9485000C9485004C
:100020000C9485000C9485000C9485000C9485003C
:100030000C9485000C9485000C9485000C9485002C
:100040000C9417050C9485000C9487050C9461059D
:100050000C9485000C9485000C9485000C9485000C
:100060000C9485000C94850000000008000201003B
:100070000003040700000000000000000000000072
:10008000250028002B0000000000240027002A0083
:10009000040404040404040402020202020203032E
:1000A0000303030301020408102040800102040836
:1000B0001020010204081020B90511241FBECFEF43
:1000C000D8E0DEBFCDBF22E0A6E4B1E001C01D92C2
:1000D000A131B207E1F711E0A0E0B1E0EEE7FFE007
:1000E00002C005900D92A634B107D9F710E0CDE516
:1000F000D0E004C02197FE010E94B207CC35D107A1
:10010000C9F70E9403060C94BD070C94000090E010
:10011000FC01EC55FF4F2491FC01E057FF4F849107
:10012000882399F090E0880F991FFC01EA57FF4F50
:10013000A591B491FC01E458FF4F859194918FB73C
:10014000F894EC91E22BEC938FBF089590E0FC01C2
:10015000E859FF4F2491FC01EC55FF4F3491FC010D
:10016000E057FF4FE491EE2309F43CC0222339F11C
:10017000233091F038F42130A9F0223001F584B514
:100180008F7D12C0273091F02830A1F02430B9F4CF
:10019000809180008F7D03C0809180008F77809355
:1001A00080000DC084B58F7784BD09C08091B000F8
:1001B0008F7703C08091B0008F7D8093B000F0E016
:1001C000EE0FFF1FE458FF4FA591B4919FB7F8942D
:1001D000611104C08C913095382302C0EC913E2B04
:1001E0003C939FBF08953FB7F89480915001909140
:1001F0005101A0915201B091530126B5A89B05C0B1
:100200002F3F19F00196A11DB11D3FBFBA2FA92F95
:10021000982F8827820F911DA11DB11DBC01CD0112
:1002200042E0660F771F881F991F4A95D1F70895FE
:10023000CF92DF92EF92FF920F931F93CF93DF93B2
:100240006C017A018B01C0E0D0E0CE15DF0581F0B2
:10025000D8016D918D01D601ED91FC910190F08155
:10026000E02DC6010995892B11F02196EECF7E0174
:10027000C701DF91CF911F910F91FF90EF90DF9019
:10028000CF900895FC01538D448D252F30E0842FAD
:1002900090E0821B930B541710F0CF9608950197AE
:1002A0000895FC01918D828D981761F0828DDF0198
:1002B000A80FB11D5D968C91928D9F5F9F73928F59
:1002C00090E008958FEF9FEF08950F931F93CF93C2
:1002D000DF9308E511E0C0E0D0E02FB7F8948091FB
:1002E000540190915501A0915601B09157012FBF33
:1002F0008093640190936501A0936601B0936701B8
:100300008CE591E00E94510197FF25C02FB7F8942A
:100310008091540190915501A0915601B0915701DF
:100320002FBF409164015091650160916601709109
:100330006701841B950BA60BB70B40916001509190
:100340006101609162017091630184179507A607AE
:10035000B707B0F20BC08A30910541F0F8018193E4
:100360008F012196C330D10509F0B7CFCE01DF91BF
:10037000CF911F910F910895FC01918D828D981757
:1003800031F0828DE80FF11D858D90E008958FEF9B
:100390009FEF0895FC01918D228D892F90E0805C64
:1003A0009F4F821B91098F73992708958CE591E0E7
:1003B0000E94CA0121E0892B09F420E0822F0895D0
:1003C000FC01848DDF01A80FB11DA35ABF4F2C91F2
:1003D000848D90E001968F739927848FA689B789C1
:1003E0002C93A089B1898C91837080648C93938DB8
:1003F000848D981306C00288F389E02D80818F7D5B
:1004000080830895EF92FF920F931F93CF93DF9312
:10041000EC0181E0888F9B8D8C8D981305C0E88955
:10042000F989808185FD26C0F62E0B8D10E00F5FC7
:100430001F4F0F731127E02E8C8DE8120CC00FB6E2
:1004400007FCFACFE889F989808185FFF5CFCE01D5
:100450000E94E001F1CF8B8DFE01E80FF11DE35A00
:10046000FF4FF0829FB7F8940B8FEA89FB89808158
:1004700080620AC09FB7F894EE89FF896083E8899B
:10048000F98980818370806480839FBF81E090E0E0
:10049000DF91CF911F910F91FF90EF900895CF932F
:1004A000DF93EC01888D8823C9F0EA89FB8980817C
:1004B00085FD05C0A889B9898C9186FD0FC00FB64E
:1004C00007FCF5CF808185FFF2CFA889B9898C918F
:1004D00085FFEDCFCE010E94E001E7CFDF91CF9104
:1004E000089580E090E0892B29F00E94D6018111C7
:1004F0000C9400000895CF93DF93EC0160E08E81AF
:100500000E94A60061E08E810E94A60060E08E81BC
:100510000E94A6008BE891E00197F1F7DF91CF915F
:100520000895CF92DF92EF92FF920F931F93CF9394
:10053000DF936C017C0187E0E80EF11CC0E0D0E0A5
:10054000062F10E0B8010C2E02C0759567950A942D
:10055000E2F76170F70181917F010E94A600219668
:10056000C430D10579F7C601DF91CF911F910F916A
:10057000FF90EF90DF90CF900C947B02CF92DF92B0
:10058000EF92FF920F931F93CF93DF93EC01F62E20
:10059000642F8C810E94A6008D818F3F19F060E04E
:1005A0000E94A6008F850F2D10E084FF25C06E01EC
:1005B00087E0C80ED11CE12CF12CB8010E2C02C032
:1005C000759567950A94E2F76170F60181916F0164
:1005D0000E94A600FFEFEF1AFF0A88E0E816F10478
:1005E00061F7CE01DF91CF911F910F91FF90EF90B6
:1005F000DF90CF900C947B02B80184E075956795ED
:100600008A95E1F7CE010E9491026F2DCE01DF9114
:10061000CF911F910F91FF90EF90DF90CF900C94AE
:10062000910240E0682F89EF91E00C94BE02CF93D5
:10063000DF93823028F0909108029860909308022E
:1006400080930C0210920D0280E480930E0280E1F0
:1006500080930F0280E5809310028091FD010E943B
:1006600087008091FE018F3F11F00E9487008091EA
:10067000FF010E948700C9EFD1E09E01295F314050
:100680008091080284FD03C084E090E002C088E00D
:1006900090E021962817390724F48E810E94870064
:1006A000ECCF8BE39DE00197F1F760E08091FD01D5
:1006B0000E94A60060E08091FF010E94A600809148
:1006C000FE018F3F19F060E00E94A60080910802B1
:1006D00084FD20C063E089EF91E00E949102CBE4A9
:1006E000D6E4CE010197F1F763E089EF91E00E9433
:1006F00091022197F1F763E089EF91E00E94910266
:1007000083E592E00197F1F762E089EF91E00E94C2
:10071000910215C080620E9411038BE496E4019758
:10072000F1F78091080280620E94110383E592E054
:100730000197F1F78091080280620E941103809175
:10074000080280620E94110384E0809309028CE019
:100750000E94110381E00E9411038BE39FE1019746
:10076000F1F782E080930A0286E0DF91CF910C944A
:10077000110341E00E94BE0281E090E008950895D7
:1007800080E090E008950E94B8076115710579F046
:10079000FB0101900020E9F73197AF01461B570B91
:1007A000DC01ED91FC910280F381E02D099480E061
:1007B00090E008954F925F926F927F928F929F92F6
:1007C000AF92BF92CF92DF92EF92FF920F931F935F
:1007D000CF93DF93CDB7DEB7A1970FB6F894DEBF06
:1007E0000FBECDBF8C016A017B0177FF2FC0DC01FA
:1007F000ED91FC910190F081E02D6DE209955C0195
:1008000022273327A9012C193D094E095F0919A296
:10081000FE01B1967F019AE0492E512C612C712C7A
:10082000CA01B901A30192010E947C07605DD70152
:100830006E937D01211531054105510589F7BD01F3
:10084000C8010E94C5038A0D9B1D1EC09A01AB0101
:1008500019A2FE01B1967F018AE0882E912CA12C6D
:10086000B12CCA01B901A50194010E947C07605D09
:10087000D7016E937D01211531054105510589F799
:10088000BD01C8010E94C503A1960FB6F894DEBF52
:100890000FBECDBFDF91CF911F910F91FF90EF90D1
:1008A000DF90CF90BF90AF909F908F907F906F9090
:1008B0005F904F900895CF92DF92EF92FF926C017C
:1008C000092E000CEE08FF0897FD0AC0B701A6012B
:1008D00089EF91E0FF90EF90DF90CF900C94DA03D6
:1008E00041E068E289EF91E00E94BE02B701A601F3
:1008F00089EF91E00E94DA0341E069E289EF91E03B
:10090000FF90EF90DF90CF900C94BE020E946501A3
:1009100090934701809346016EE171E08CE591E090
:100920000E94C5034091460150914701052E000CDD
:10093000660B770B8CE591E00E94DA0363E271E0CD
:100940008CE591E00E94C50368E571E08CE591E0DB
:100950000E94C5036CE371E08CE591E00E94C50341
:1009600080914601909147018130910539F4809141
:100970005801082E000C990BC09721C082309105B8
:1009800009F520915801809159012D3239F4082E32
:10099000000C990BC0974FEF5FEF40C0022E000C88
:1009A000330B205331099AE0929FA001939F500D81
:1009B0001124082E000C990BC097840F951F41E05D
:1009C00050E02CC0039731F5809158018D3219F415
:1009D0004FEF5FEF02C041E050E0E1E0F0E0E41BE8
:1009E000F50BF595E795E85AFE4F2081022E000C95
:1009F000330B205331096AE0629FC001639F900D61
:100A000011242181022E000C330B20533109820F57
:100A1000931F04C040E050E080E090E09C01249FE0
:100A2000C001259F900D349F900D112408951F92B1
:100A30000F920FB60F9211242F933F938F939F9392
:100A4000AF93BF938091540190915501A0915601AD
:100A5000B091570130914F0123E0230F2D3720F43F
:100A60000196A11DB11D05C026E8230F0296A11D08
:100A7000B11D20934F018093540190935501A09391
:100A80005601B09357018091500190915101A0916E
:100A90005201B09153010196A11DB11D80935001E7
:100AA00090935101A0935201B0935301BF91AF9124
:100AB0009F918F913F912F910F900FBE0F901F909C
:100AC00018951F920F920FB60F9211242F933F93F8
:100AD0004F935F936F937F938F939F93AF93BF9346
:100AE000EF93FF938CE591E00E94E001FF91EF917D
:100AF000BF91AF919F918F917F916F915F914F9136
:100B00003F912F910F900FBE0F901F9018951F923D
:100B10000F920FB60F9211242F938F939F93EF9301
:100B2000FF93E0916C01F0916D018081E091720181
:100B3000F091730182FD12C09081809175018F5FE9
:100B40008F7320917601821751F0E0917501F0E0EA
:100B5000E45AFE4F958F8093750101C08081FF910B
:100B6000EF919F918F912F910F900FBE0F901F903B
:100B70001895ECE5F1E01382128288EE93E0A0E094
:100B8000B0E084839583A683B78384E091E091836A
:100B9000808385EC90E09587848784EC90E097874C
:100BA000868780EC90E0918B808B81EC90E0938B3A
:100BB000828B82EC90E0958B848B86EC90E0978B17
:100BC000868B118E128E138E148EE9EFF1E0138254
:100BD000128286E191E09183808382E0848383E0C6
:100BE000858384E0868385E0878386E0808787E04D
:100BF000818788E082871386148615861686178675
:100C000081E00C941703789484B5826084BD84B528
:100C1000816084BD85B5826085BD85B5816085BDF7
:100C200080916E00816080936E00109281008091AF
:100C30008100826080938100809181008160809337
:100C40008100809180008160809380008091B1005C
:100C500084608093B1008091B00081608093B00087
:100C600080917A00846080937A0080917A0082601B
:100C700080937A0080917A00816080937A008091DD
:100C80007A00806880937A001092C100E0916C0134
:100C9000F0916D0182E08083E0916801F09169013B
:100CA0001082E0916A01F0916B018FEC80831092C9
:100CB0007401E0917001F091710186E08083E09110
:100CC0006E01F0916F01808180618083E0916E01FF
:100CD000F0916F01808188608083E0916E01F091D6
:100CE0006F01808180688083E0916E01F0916F01D7
:100CF00080818F7D808382E00E9417030BE31FE1D8
:100D00008CE591E00E94CA01181619060CF0DDC0AE
:100D100080914D0190914E01019690934E018093E8
:100D20004D018230910521F118F4019739F0A7C0E7
:100D30008330910541F1049779F1A1C081E00E94CF
:100D40001103C8010197F1F7E1E080910C028111D4
:100D5000E0E0E195F0E0E750FE4F848980680E9472
:100D600011030E94860490934C0180934B0111C0A3
:100D70000E9465016091580160934A0189EF91E0FA
:100D80000E94B9037CC00E9486049093490180931D
:100D900048010E945B0473C00E9465016DE389EF06
:100DA00091E00E94B903E0910C02E23010F4E150AE
:100DB00001C0E1E0F0E0E750FE4F848980680E94C6
:100DC000110380914A018B32C9F09CF48A3209F0F8
:100DD00042C020914B0130914C018091480190918B
:100DE0004901289FE001299FD00D389FD00D112483
:100DF0003AC08D3279F08F32C9F02DC040914B014D
:100E000050914C018091480190914901EA01C80F2D
:100E1000D91F29C040914B0150914C01809148014C
:100E200090914901EA01C81BD90B1DC020914801CE
:100E30003091490180914B0190914C01B9010E9480
:100E40006807EB01232B79F46FE371E089EF91E000
:100E50000E94C50308C06FE371E089EF91E00E9432
:100E6000C503C0E0D0E0AE01DD0F660B770B89EF64
:100E700091E00E94DA0310924E0110924D010E94FF
:100E8000F3004B015C0184E6C82ED12CE12CF12C3F
:100E90000E94F300DC01CB0188199909AA09BB095A
:100EA000883E9340A105B10598F321E0C21AD1080C
:100EB000E108F10888EE880E83E0981EA11CB11CA1
:100EC000C114D104E104F10419F70E94710218CF92
:100ED00097FB072E16F4009407D077FD09D00E94E7
:100EE0009E0707FC05D03EF4909581959F4F08958D
:100EF000709561957F4F0895A1E21A2EAA1BBB1B26
:100F0000FD010DC0AA1FBB1FEE1FFF1FA217B307D5
:100F1000E407F50720F0A21BB30BE40BF50B661FEB
:100F2000771F881F991F1A9469F7609570958095AF
:100F300090959B01AC01BD01CF010895AA1BBB1B7D
:100F400051E107C0AA1FBB1FA617B70710F0A61BC9
:100F5000B70B881F991F5A95A9F780959095BC01EA
:100F6000CD010895EE0FFF1F0590F491E02D099437
:0E0F700081E090E0F8940C94BD07F894FFCF58
:100F7E00000000000202180142014F02CA01510195
:100F8E00BC0100000000B9031801C003BF03476590
:100F9E007420002063686172732C20637572726511
:100FAE006E74206275666665723A20000D0A004501
:060FBE0052524F522100C7
:00000001FF
