:100000000C9458000C9480000C9480000C94800098
:100010000C9480000C9480000C9480000C94800060
:100020000C9480000C9480000C9480000C94800050
:100030000C9480000C9480000C9480000C94800040
:100040000C940B050C9480000C947B050C945505C6
:100050000C9480000C9480000C9480000C94800020
:100060000C94AD050C9480000000000025002800D1
:100070002B00040404040404040402020202020229
:10008000030303030303010204081020408001025C
:1000900004081020010204081020000000080002DB
:1000A0000100000304070000000000000000DB0660
:1000B00011241FBECFEFD8E0DEBFCDBF22E0ACE4FD
:1000C000B1E001C01D92A33CB207E1F711E0A0E04E
:1000D000B1E0EAE6F6E102C005900D92AC34B1075A
:1000E000D9F710E0C8E5D0E004C02197FE010E94D6
:1000F0002209C735D107C9F70E9414070C94330BA6
:100100000C94000030910D02313208F04BC0809108
:10011000E9018111FCCF90910C0222E02093E901CA
:1001200021E02093E8012FEF2093E7011092E601F0
:100130003093E501ECEEF1E0A5ECB1E020E0321700
:1001400021F041914D932F5FFACF1092C40120917D
:10015000C401990F922B9093C4019091C3019130E7
:1001600061F41092C3019091C4019093BB009091EF
:10017000BC0093FDF8CF95EC01C095EE9093BC00C8
:100180009091E9019230E1F39091E7019F3F79F07E
:100190008091E701803241F08091E701803331F0B6
:1001A00084E005C081E003C082E001C083E01092DA
:1001B000EB0110920D021092EA01089590E0FC010B
:1001C000E656FF4F2491FC01EA57FF4F3491FC01A2
:1001D000EE58FF4FE491EE23B1F1222339F12330A1
:1001E00091F038F42130A9F0223001F584B58F7DEB
:1001F00012C0273091F02830A1F02430B9F480915A
:1002000080008F7D03C0809180008F778093800075
:100210000DC084B58F7784BD09C08091B0008F7701
:1002200003C08091B0008F7D8093B000F0E0EE0FAE
:10023000FF1FE859FF4FA591B4918FB7F894EC9147
:10024000E32BEC938FBF08953FB7F8948091BF01E3
:100250009091C001A091C101B091C20126B5A89BA7
:1002600005C02F3F19F00196A11DB11D3FBFBA2F48
:10027000A92F982F8827820F911DA11DB11DBC01A8
:10028000CD0142E0660F771F881F991F4A95D1F76D
:100290000895CF92DF92EF92FF920F931F93CF9327
:1002A000DF936C017A018B01C0E0D0E0CE15DF0551
:1002B00081F0D8016D918D01D601ED91FC910190F5
:1002C000F081E02DC6010995892B11F02196EECF22
:1002D0007E01C701DF91CF911F910F91FF90EF90A9
:1002E000DF90CF90089508950895FC01538D448DBB
:1002F000252F30E0842F90E0821B930B541710F0D1
:10030000CF96089501970895FC01918D828D9817DD
:1003100061F0828DDF01A80FB11D5D968C91928DE9
:100320009F5F9F73928F90E008958FEF9FEF0895E6
:100330000F931F93CF93DF9302E112E0C0E0D0E070
:100340002FB7F89480910E0290910F02A0911002A5
:10035000B09111022FBF80931E0290931F02A093B1
:100360002002B093210286E192E00E94840197FF6F
:1003700025C02FB7F89480910E0290910F02A091A2
:100380001002B09111022FBF40911E0250911F0226
:100390006091200270912102841B950BA60BB70B74
:1003A00040911A0250911B0260911C0270911D0233
:1003B00084179507A607B707B0F20BC08A309105DE
:1003C00041F0F80181938F012196C330D10509F0E6
:1003D000B7CFCE01DF91CF911F910F910895FC010E
:1003E000918D828D981731F0828DE80FF11D858DEA
:1003F00090E008958FEF9FEF0895FC01918D228D7D
:10040000892F90E0805C9F4F821B91098F73992701
:10041000089586E192E00E94FD0121E0892B09F414
:1004200020E0822F0895FC01848DDF01A80FB11D0B
:10043000A35ABF4F2C91848D90E001968F7399271A
:10044000848FA689B7892C93A089B1898C918370F8
:1004500080648C93938D848D981306C00288F389F1
:10046000E02D80818F7D80830895EF92FF920F931E
:100470001F93CF93DF93EC0181E0888F9B8D8C8D50
:10048000981305C0E889F989808185FD26C0F62E7C
:100490000B8D10E00F5F1F4F0F731127E02E8C8D17
:1004A000E8120CC00FB607FCFACFE889F989808101
:1004B00085FFF5CFCE010E941302F1CF8B8DFE0197
:1004C000E80FF11DE35AFF4FF0829FB7F8940B8FAE
:1004D000EA89FB89808180620AC09FB7F894EE891F
:1004E000FF896083E889F9898081837080648083D3
:1004F0009FBF81E090E0DF91CF911F910F91FF901E
:10050000EF900895CF93DF93EC01888D8823C9F095
:10051000EA89FB89808185FD05C0A889B9898C910C
:1005200086FD0FC00FB607FCF5CF808185FFF2CFA7
:10053000A889B9898C9185FFEDCFCE010E94130265
:10054000E7CFDF91CF91089580E090E0892B29F0EB
:100550000E94090281110C940000089585ED80939A
:10056000BC008091BC0084FDFCCF1092E90108958D
:1005700040918E01262F30E0240F311D21323105AC
:10058000DCF42091E9012430C9F4FC0180E090E022
:10059000861758F430918E012191DC01A259BE4F8B
:1005A000A30FB11D2C930196F3CF80918E01680F9C
:1005B00060938E0180E0089581E0089582E00895BF
:1005C0000895E091B6018091B501E81730F4F0E0AC
:1005D000E25BFE4F808190E008958FEF9FEF0895DA
:1005E0009091B6018091B501981750F4E92FF0E091
:1005F000E25BFE4F208130E09F5F9093B60102C026
:100600002FEF3FEFC90108958091B50190E020914F
:10061000B601821B91090895CF92DF92EF92FF926B
:100620000F931F93CF93DF937C01CB018A0120911D
:10063000EA01222389F0EB016B01C40ED51ECC1513
:10064000DD0569F06991D701ED91FC910190F08190
:10065000E02DC7010995F3CF642F0E94B802C801AD
:10066000DF91CF911F910F91FF90EF90DF90CF908E
:100670000895CF93DF931F92CDB7DEB769832091A2
:10068000EA012223D1F020910D02203240F021E036
:1006900030E0FC013383228380E090E015C080913C
:1006A000EB01E82FF0E0E451FE4F998190838F5FDA
:1006B0008093EB0180930D0205C061E0CE010196AD
:1006C0000E94B80281E090E00F90DF91CF910895F1
:1006D000089580E090E0089591E09093EA0194E01D
:1006E00090930C021092EB0110920D02682F83EB95
:1006F00092E00E9439030C9482000E940F0B611556
:10070000710579F0FB0101900020E9F73197AF0105
:10071000461B570BDC01ED91FC910280F381E02D2B
:10072000099480E090E008959F92AF92BF92CF929B
:10073000DF92EF92FF920F931F93CF93DF93CDB78A
:10074000DEB762970FB6F894DEBF0FBECDBF6C0167
:10075000962E4AE0CE0101967C01BC01C6010E94A2
:100760006C08F70101900020E9F731978F010E190D
:100770001F09B8016F5F7F4F80E090E00E94490A37
:100780005C01009731F0FC011082B7010E941D0B43
:1007900002C000E010E00115110511F419820EC02D
:1007A0000630110510F006E010E0A801B501C70100
:1007B0000E94240BF701E00FF11F1082C5010E9477
:1007C000C00981E08093EA0184E080930C021092DA
:1007D000EB0110920D02D7FE07C0992029F068E2C4
:1007E00083EB92E00E943903B70183EB92E00E9411
:1007F0007F03D7FE07C0992029F069E283EB92E0DE
:100800000E9439030E94820062960FB6F894DEBF00
:100810000FBECDBFDF91CF911F910F91FF90EF9051
:10082000DF90CF90BF90AF909F9008958F929F924E
:10083000AF92BF92CF92DF92EF92FF92CF93DF936E
:10084000CDB7DEB7A1970FB6F894DEBF0FBECDBF10
:100850000E94980190934D0180934C016AE271E0EF
:1008600086E192E00E947F03C0904C01D0904D0140
:100870000D2C000CEE08FF08F7FE25C06DE286E1A6
:1008800092E00E94350222273327A9012C193D0945
:100890004E095F0919A2CE0181967C016AE0862E7D
:1008A000912CA12CB12CCA01B901A50194010E947F
:1008B000EC08605DF70162937F0121153105410568
:1008C000510589F71AC0A701960119A2CE01819698
:1008D0007C019AE0892E912CA12CB12CCA01B9017E
:1008E000A50194010E94EC08605DF70162937F010D
:1008F000211531054105510589F7B70186E192E0DF
:100900000E947F036FE271E086E192E00E947F0324
:1009100062E172E086E192E00E947F0368E471E0A8
:1009200086E192E00E947F0380914C0190914D01FD
:100930008130910539F480911202082E000C990B38
:10094000C09721C08230910509F520911202809153
:1009500013022D3239F4082E000C990BC0974FEF7B
:100960005FEF40C0022E000C330B205331099AE098
:10097000929FA001939F500D1124082E000C990BFB
:10098000C097840F951F41E050E02CC0039731F5CC
:10099000809112028D3219F44FEF5FEF02C041E0F7
:1009A00050E0E1E0F0E0E41BF50BF595E795EE5E35
:1009B000FD4F2081022E000C330B205331096AE0D9
:1009C000629FC001639F900D11242181022E000CB3
:1009D000330B20533109820F931F04C040E050E0D5
:1009E00080E090E09C01249FC001259F900D349FE2
:1009F000900D1124A1960FB6F894DEBF0FBECDBFA7
:100A0000DF91CF91FF90EF90DF90CF90BF90AF90AC
:100A10009F908F9008951F920F920FB60F921124FE
:100A20002F933F938F939F93AF93BF9380910E0229
:100A300090910F02A0911002B09111023091BE016D
:100A400023E0230F2D3720F40196A11DB11D05C011
:100A500026E8230F0296A11DB11D2093BE018093AD
:100A60000E0290930F02A0931002B0931102809196
:100A7000BF019091C001A091C101B091C201019646
:100A8000A11DB11D8093BF019093C001A093C1012E
:100A9000B093C201BF91AF919F918F913F912F91E0
:100AA0000F900FBE0F901F9018951F920F920FB6C8
:100AB0000F9211242F933F934F935F936F937F93E4
:100AC0008F939F93AF93BF93EF93FF9386E192E051
:100AD0000E941302FF91EF91BF91AF919F918F916F
:100AE0007F916F915F914F913F912F910F900FBE2A
:100AF0000F901F9018951F920F920FB60F9211240E
:100B00002F938F939F93EF93FF93E0912602F091A1
:100B100027028081E0912C02F0912D0282FD12C00B
:100B2000908180912F028F5F8F7320913002821706
:100B300051F0E0912F02F0E0EA5EFD4F958F809337
:100B40002F0201C08081FF91EF919F918F912F9192
:100B50000F900FBE0F901F9018951F920F920FB617
:100B60000F9211242F933F934F935F936F937F9333
:100B70008F939F93AF93BF93EF93FF938091B900AF
:100B8000887F803609F49CC068F5883209F45BC020
:100B900090F4803109F454C038F4882309F4F6C085
:100BA000883009F44DC0F6C0883109F44CC0803259
:100BB00009F45DC0EFC0803409F468C048F48033A4
:100BC00009F455C0883309F0E5C08093E701D8C027
:100BD000803509F44FC0883509F45DC0883409F0C8
:100BE000D9C0D6C0883909F4C7C0A8F4883709F439
:100BF00067C038F4883609F463C0803709F460C0F0
:100C0000C9C0883809F4B8C0803909F45FC0803899
:100C100009F0C0C05BC0803B09F486C038F4803A5C
:100C200009F466C0883A09F47FC0B4C0803C09F476
:100C3000A7C0883C09F4A4C0883B09F48AC0AAC0B4
:100C40008091C40110C09091E6018091E501981750
:100C500070F5E091E60181E08E0F8093E601F0E00F
:100C6000EB53FE4F80818093BB0085EC86C0809360
:100C7000E7018EC0E091E60181E08E0F8093E601EE
:100C80008091BB00F0E0EB53FE4F80839091E60132
:100C90008091E5016EC0E091E60181E08E0F8093C6
:100CA000E6018091BB00F0E0EB53FE4F8083809122
:100CB000E80181116DC081E08093C30184EA61C0C5
:100CC00083E08093E9011092B001CFCF8091B00111
:100CD000803208F051C0E091B00181E08E0F809326
:100CE000B0018091BB00F0E0E057FE4F8083BDCFA4
:100CF00085EC8093BC001092E9018091B0018032B4
:100D000030F4E091B001F0E0E057FE4F10826091C6
:100D1000B00170E0E091B101F091B20180E991E0A1
:100D200009951092B00136C084E08093E9011092D9
:100D30008F0110928E01E091B301F091B4010995F9
:100D400080918E01811105C081E080938E01109207
:100D50006E01E0918F0181E08E0F80938F01F0E0B2
:100D6000E259FE4F80818093BB0090918F0180916A
:100D70008E01981708F479CF85E88093BC000AC0EB
:100D800085EC8093BC001092E90104C01092E70149
:100D90000E94AE02FF91EF91BF91AF919F918F9111
:100DA0007F916F915F914F913F912F910F900FBE67
:100DB0000F901F901895E6E1F2E01382128288EE00
:100DC00093E0A0E0B0E084839583A683B7832AE014
:100DD00031E03183208325EC30E03587248724EC13
:100DE00030E03787268720EC30E0318B208B21ECF8
:100DF00030E0338B228B22EC30E0358B248B26ECD9
:100E000030E0378B268B118E128E138E148EE3EB0F
:100E1000F2E01382128284839583A683B7838CE1E8
:100E200091E0918380830895789484B5826084BD35
:100E300084B5816084BD85B5826085BD85B58160DE
:100E400085BD80916E00816080936E00109281005C
:100E50008091810082608093810080918100816017
:100E600080938100809180008160809380008091D8
:100E7000B10084608093B1008091B0008160809364
:100E8000B00080917A00846080937A0080917A002B
:100E9000826080937A0080917A00816080937A00EA
:100EA00080917A00806880937A001092C100E0916E
:100EB0002602F091270282E08083E0912202F091E5
:100EC00023021082E0912402F09125028FEC8083AE
:100ED00010922E02E0912A02F0912B0286E080838C
:100EE000E0912802F0912902808180618083E09165
:100EF0002802F0912902808188608083E091280295
:100F0000F0912902808180688083E0912802F0912D
:100F1000290280818F7D80831092B6011092B501E5
:100F20001092EB0110920D021092E90181E0809382
:100F3000E8011092C30182E10E94DE0083E10E9479
:100F4000DE008091B9008E7F8093B9008091B90056
:100F50008D7F8093B90088E48093B80085E4809306
:100F6000BC0083E791E09093B4018093B30184E7E0
:100F700091E09093B2018093B10186E192E00E94EA
:100F8000FD01181619060CF0A4C08091BC019091C7
:100F9000BD0101969093BD018093BC018230910503
:100FA00089F050F4019709F06EC00E9416049093E6
:100FB000BB018093BA0115C08330910561F004979D
:100FC000A1F061C00E949801809112028093B90142
:100FD0000E946C0358C00E9416049093B80180933D
:100FE000B70161E00E9494034EC00E9498018DE316
:100FF0000E946C038091B9018B3219F194F48A320A
:10100000B1F54091BA015091BB012091B7013091E7
:10101000B801429FC001439F900D529F900D112433
:1010200028C08D32C9F08F3211F58091BA019091AC
:10103000BB016091B7017091B8010E94D808CB0143
:1010400018C02091BA013091BB018091B7019091F5
:10105000B801820F931F0DC08091BA019091BB011E
:101060002091B7013091B801821B930B02C080E040
:1010700090E060E00E9494038EE20E946C03109264
:10108000BD011092BC010E9424014B015C0184E669
:10109000C82ED12CE12CF12C0E942401DC01CB01C3
:1010A00088199909AA09BB09883E9340A105B10591
:1010B00098F321E0C21AD108E108F10888EE880E01
:1010C00083E0981EA11CB11CC114D104E104F104F9
:1010D00019F70E94A40251CFBB274A3031F499235B
:1010E00022F4BDE2909581959F4F0C947808BB2720
:1010F000FB015527AA27880F991FAA1FA41710F0D4
:10110000A41B83955051B9F7A05DAA3308F0A95DDF
:10111000A193009779F7B111B1931192CB010C947F
:101120009108DC01FC01672F71917723E1F7329779
:1011300004C07C916D9370836291AE17BF07C8F3B2
:1011400008952F923F924F925F926F927F928F926B
:101150009F92AF92BF92CF92DF92EF92FF920F9346
:101160001F93CF93DF93CDB7DEB7CA1BDB0B0FB650
:10117000F894DEBF0FBECDBF09942A88398848880D
:101180005F846E847D848C849B84AA84B984C884A3
:10119000DF80EE80FD800C811B81AA81B981CE0F9A
:1011A000D11D0FB6F894DEBF0FBECDBFED0108957F
:1011B00097FB072E16F4009407D077FD09D00E9404
:1011C0000E0907FC05D03EF4909581959F4F089538
:1011D000709561957F4F0895A1E21A2EAA1BBB1B43
:1011E000FD010DC0AA1FBB1FEE1FFF1FA217B307F3
:1011F000E407F50720F0A21BB30BE40BF50B661F09
:10120000771F881F991F1A9469F7609570958095CC
:1012100090959B01AC01BD01CF010895AA1BBB1B9A
:1012200051E107C0AA1FBB1FA617B70710F0A61BE6
:10123000B70B881F991F5A95A9F780959095BC0107
:10124000CD010895EE0FFF1F0590F491E02D099454
:101250000F931F93CF93DF938230910510F482E0B8
:1012600090E0E091C102F091C20220E030E0A0E005
:10127000B0E0309719F14081518102811381481704
:101280005907C8F08417950769F4109731F0129642
:101290000C93129713961C9327C00093C1021093CE
:1012A000C20222C02115310519F04217530718F464
:1012B0009A01BD01EF01DF01F801DBCF21153105F6
:1012C000F9F0281B390B2430310580F48A819B8189
:1012D0006115710521F0FB019383828304C0909313
:1012E000C2028093C102FE01329644C0FE01E20FA9
:1012F000F31F8193919322503109398328833AC097
:101300002091BF023091C002232B41F420910201B1
:10131000309103013093C0022093BF02209100015D
:10132000309101012115310541F42DB73EB74091AF
:10133000040150910501241B350BE091BF02F0918F
:10134000C002E217F307A0F42E1B3F0B2817390742
:1013500078F0AC014E5F5F4F2417350748F04E0F11
:101360005F1F5093C0024093BF028193919302C0CC
:10137000E0E0F0E0CF01DF91CF911F910F91089550
:10138000CF93DF93009709F481C0FC013297138259
:101390001282A091C102B091C202109781F4208103
:1013A0003181820F931F2091BF023091C002281714
:1013B000390751F5F093C002E093BF0267C0ED0119
:1013C00020E030E0CE17DF0740F44A815B819E01C8
:1013D00041155105F1F0EA01F5CFD383C283408175
:1013E0005181840F951FC817D90759F488819981B5
:1013F000840F951F0296918380838A819B819383BA
:1014000082832115310529F4F093C202E093C102D1
:101410003DC0E901FB83EA8349915991C40FD51F6F
:10142000EC17FD0761F480819181840F951F02966E
:10143000E90199838883828193819B838A83E0E099
:10144000F0E012968D919C911397009719F0FD0191
:10145000DC01F7CF8D919C9111979D012E5F3F4F3D
:10146000820F931F2091BF023091C00228173907C5
:1014700069F4309729F41092C2021092C10202C09E
:1014800013821282B093C002A093BF02DF91CF916A
:101490000895A0E0B0E0EFE4FAE00C94A508EC01B8
:1014A000009721F4CB010E942809B4C0FC01E60F8B
:1014B000F71F9C0122503109E217F30708F4A8C076
:1014C000D9010D911C91119706171707B0F005303F
:1014D000110508F49BC0C80104978617970708F404
:1014E00095C002501109061B170B019311936D93C0
:1014F0007C93CF010E94C00989C05B01A01AB10A88
:101500004C01800E911EA091C102B091C202612CCB
:10151000712CE12CF12C109709F446C08D919C910F
:101520001197A815B905B1F56C0142E0C40ED11CA4
:10153000CA14DB0478F14C018A189B08640142E06C
:10154000C40ED11C1296BC9012971396AC91B5E0C4
:10155000CB16D10440F0B282A38391828082D9015C
:101560006D937C9309C00E5F1F4F800F911FF9018F
:1015700091838083EB2DFA2FE114F10431F0D70130
:101580001396FC93EE93129741C0F093C202E0933E
:10159000C1023CC06816790608F43C017D01129630
:1015A0000D90BC91A02DB7CF8091BF029091C00249
:1015B00088169906E1F466167706C8F48091000152
:1015C00090910101009741F48DB79EB740910401BD
:1015D00050910501841B950BE817F907C8F4F093A7
:1015E000C002E093BF02F901718360830FC0CB0199
:1015F0000E9428097C01009759F0A801BE010E94B1
:10160000140BCE010E94C009C70104C0CE0102C064
:1016100080E090E0CDB7DEB7EEE00C94C10881E049
:1016200090E0F8940C94330BFB01DC0102C00190B4
:101630000D9241505040D8F70895FB01DC01019014
:101640000D920020E1F70895FB01DC01415050406C
:1016500048F001900D920020C9F701C01D92415041
:0A1660005040E0F70895F894FFCF22
:10166A000000C30280000000000035024901750134
:10167A008202FD018401EF010000000039030C031E
:10168A006903E0020403F002E102476574200020C6
:10169A0063686172732C2063757272656E7420625E
:0C16AA0075666665723A20000D0A0000AB
:00000001FF
