:100000000C9462000C948A000C948A000C948A0070
:100010000C948A000C948A000C948A000C948A0038
:100020000C948A000C948A000C948A000C948A0028
:100030000C948A000C948A000C948A000C948A0018
:100040000C94EE020C948A000C948A000C948A00A2
:100050000C948A000C948A000C948A000C948A00F8
:100060000C948A000C948A000000000024002700F1
:100070002A0000000000250028002B0000000000DE
:1000800023002600290004040404040404040202DA
:100090000202020203030303030301020408102007
:1000A0004080010204081020010204081020000012
:1000B0000008000201000003040700000000000027
:1000C0000000090411241FBECFEFD8E0DEBFCDBF72
:1000D00011E0A0E0B1E0E8E6F8E002C005900D9282
:1000E000AE30B107D9F721E0AEE0B1E001C01D921A
:1000F000A133B207E1F710E0C2E6D0E004C02197D7
:10010000FE010E942704C136D107C9F70E943803B7
:100110000C9432040C940000833081F028F4813078
:1001200099F08230A1F008958730A9F08830B9F0B5
:100130008430D1F4809180008F7D03C08091800055
:100140008F7780938000089584B58F7702C084B53F
:100150008F7D84BD08958091B0008F7703C080911A
:10016000B0008F7D8093B0000895CF93DF93282F48
:1001700030E0F901E255FF4F8491F901E656FF4F57
:10018000D491F901EA57FF4FC491CC2391F081112A
:100190000E948C00EC2FF0E0EE0FFF1FE458FF4FA1
:1001A000A591B491EC91ED2381E090E021F480E001
:1001B00002C080E090E0DF91CF9108951F93CF932C
:1001C000DF93282F30E0F901E255FF4F8491F901C8
:1001D000E656FF4FD491F901EA57FF4FC491CC2363
:1001E000C1F0162F81110E948C00EC2FF0E0EE0F71
:1001F000FF1FEE58FF4FA591B4919FB7F8941111CE
:1002000004C08C91D095D82302C0EC91DE2BDC93F6
:100210009FBFDF91CF911F910895CF93DF9390E01F
:10022000FC01E656FF4F2491FC01EA57FF4F8491F1
:10023000882361F190E0880F991FFC01E859FF4F76
:10024000C591D491FC01EE58FF4FA591B491611175
:1002500009C09FB7F8948881209582238883EC9108
:100260002E230BC0623061F49FB7F8948881322F3F
:10027000309583238883EC912E2B2C939FBF06C04F
:100280008FB7F894E8812E2B28838FBFDF91CF9111
:1002900008953FB7F8948091150190911601A091AF
:1002A0001701B091180126B5A89B05C02F3F19F082
:1002B0000196A11DB11D3FBFBA2FA92F982F8827E6
:1002C000820F911DA11DB11DBC01CD0142E0660F41
:1002D000771F881F991F4A95D1F70895CF92DF9213
:1002E000EF92FF920F931F93CF93DF936C017A01EC
:1002F0008B01C0E0D0E0CE15DF0581F0D8016D9113
:100300008D01D601ED91FC910190F081E02DC601A7
:100310000995892B11F02196EECF7E01C701DF915F
:10032000CF911F910F91FF90EF90DF90CF900895A4
:1003300041E050E06CE071E089E191E00C946E01E5
:10034000CF93DF93EC0160E08E810E94DE0061E0DC
:100350008E810E94DE0060E08E810E94DE008BE8CC
:1003600091E00197F1F7DF91CF910895CF92DF925D
:10037000EF92FF920F931F93CF93DF936C017C0159
:1003800087E0E80EF11CC0E0D0E0062F10E0B801D5
:100390000C2E02C0759567950A94E2F76170F7011B
:1003A00081917F010E94DE002196C430D10579F74A
:1003B000C601DF91CF911F910F91FF90EF90DF90D9
:1003C000CF900C94A001CF92DF92EF92FF920F9307
:1003D0001F93CF93DF93EC01F62E642F8C810E9444
:1003E000DE008D818F3F19F060E00E94DE008F8576
:1003F0000F2D10E084FF25C06E0187E0C80ED11CD0
:10040000E12CF12CB8010E2C02C0759567950A9469
:10041000E2F76170F60181916F010E94DE00FFEF4B
:10042000EF1AFF0A88E0E816F10461F7CE01DF91C8
:10043000CF911F910F91FF90EF90DF90CF900C9490
:10044000A001B80184E0759567958A95E1F7CE0122
:100450000E94B6016F2DCE01DF91CF911F910F91B8
:10046000FF90EF90DF90CF900C94B60140E0682FA2
:1004700089E191E00C94E301CF93DF93823028F07F
:100480009091280198609093280180932C011092FC
:100490002D0180E480932E0180E180932F0180E57F
:1004A0008093300161E080911D010E940D018091D7
:1004B0001E018F3F19F061E00E940D0161E0809103
:1004C0001F010E940D01C9E1D1E09E012951314077
:1004D0008091280184FD03C084E090E002C088E0A0
:1004E00090E02196281739072CF461E08E810E9454
:1004F0000D01EBCF8BE39DE00197F1F760E0809178
:100500001D010E94DE0060E080911F010E94DE005C
:1005100080911E018F3F19F060E00E94DE00809103
:10052000280184FD20C063E089E191E00E94B601CA
:10053000CBE4D6E4CE010197F1F763E089E191E0E5
:100540000E94B6012197F1F763E089E191E00E94F2
:10055000B60183E592E00197F1F762E089E191E06D
:100560000E94B60115C080620E9436028BE496E4B8
:100570000197F1F78091280180620E94360283E59D
:1005800092E00197F1F78091280180620E94360283
:100590008091280180620E94360284E080932901C4
:1005A0008CE00E94360281E00E9436028BE39FE1DC
:1005B0000197F1F782E080932A0186E0DF91CF91E5
:1005C0000C94360241E00E94E30181E090E008953E
:1005D000089580E090E008950E942D041F920F92EC
:1005E0000FB60F9211242F933F938F939F93AF9346
:1005F000BF938091110190911201A0911301B091CC
:1006000014013091100123E0230F2D3720F40196BF
:10061000A11DB11D05C026E8230F0296A11DB11D25
:10062000209310018093110190931201A093130164
:10063000B09314018091150190911601A0911701BA
:10064000B09118010196A11DB11D809315019093E1
:100650001601A0931701B0931801BF91AF919F911C
:100660008F913F912F910F900FBE0F901F90189573
:10067000789484B5826084BD84B5816084BD85B57D
:10068000826085BD85B5816085BD80916E00816089
:1006900080936E001092810080918100826080932F
:1006A0008100809181008160809381008091800031
:1006B0008160809380008091B10084608093B1005C
:1006C0008091B00081608093B00080917A00846056
:1006D00080937A0080917A00826080937A00809182
:1006E0007A00816080937A0080917A00806880939C
:1006F0007A001092C10060E089E00E940D0160E084
:100700008BE00E940D0182E00E943C02E1E08091BA
:100710002C018111E0E0E195F0E0E75EFE4F848975
:1007200080680E9436020E949801CBE3DFE100E07E
:1007300010E089E00E94B500892B31F080910E0114
:1007400090910F0101960BC08BE00E94B500892BA0
:1007500009F458C080910E0190910F010197909378
:100760000F0180930E0180910E0190910F01803155
:10077000910514F0409703C097FF05C040969093F1
:100780000F0180930E0181E00E943602CE01019795
:10079000F1F7E1E080912C018111E0E0E195F0E0DA
:1007A000E75EFE4F948980910E01890F80680E9458
:1007B00036020E9498010E9449016B017C0184EF7E
:1007C000882E99249394A12CB12C0E944901DC011C
:1007D000CB018C199D09AE09BF09883E9340A10544
:1007E000B10598F321E0821A9108A108B10888EEBA
:1007F000C80E83E0D81EE11CF11C81149104A104F1
:10080000B10419F70115110509F493CF0E940000F6
:1008100090CFE9E1F1E01382128284E091E09183CC
:10082000808382E0848383E0858384E0868385E01F
:10083000878386E0808787E0818788E082871386C8
:10084000148615861686178681E00C943C02EE0FFE
:10085000FF1F0590F491E02D099481E090E0F89459
:080860000C943204F894FFCF60
:0E08680000000000E2026E01E902E8027800E2
:00000001FF
