:100000000C945D000C9485000C9485000C94850084
:100010000C9485000C9485000C9485000C9485004C
:100020000C9485000C9485000C9485000C9485003C
:100030000C9485000C9485000C9485000C9485002C
:100040000C9463040C9485000C94D3040C94AD04BC
:100050000C9485000C9485000C9485000C9485000C
:100060000C9405050C9485000000000800020100B6
:100070000003040700000000000000000000000072
:10008000250028002B0000000000240027002A0083
:10009000040404040404040402020202020203032E
:1000A0000303030301020408102040800102040836
:1000B0001020010204081020330611241FBECFEFC8
:1000C000D8E0DEBFCDBF11E0A0E0B1E0ECEEFEE095
:1000D00002C005900D92A033B107D9F722E0A0E34A
:1000E000B1E001C01D92AF38B207E1F710E0CDE5F5
:1000F000D0E004C02197FE010E946907CC35D107EA
:10010000C9F70E9489060C9474070C94000090E0D3
:10011000FC01EC55FF4F2491FC01E057FF4F849107
:10012000882399F090E0880F991FFC01EA57FF4F50
:10013000A591B491FC01E458FF4F859194918FB73C
:10014000F894EC91E22BEC938FBF089590E0FC01C2
:10015000E859FF4F2491FC01EC55FF4F3491FC010D
:10016000E057FF4FE491EE2309F43CC0222339F11C
:10017000233091F038F42130A9F0223001F584B514
:100180008F7D12C0273091F02830A1F02430B9F4CF
:10019000809180008F7D03C0809180008F77809355
:1001A00080000DC084B58F7784BD09C08091B000F8
:1001B0008F7703C08091B0008F7D8093B000F0E016
:1001C000EE0FFF1FE458FF4FA591B4919FB7F8942D
:1001D000611104C08C913095382302C0EC913E2B04
:1001E0003C939FBF08953FB7F8948091CA019091C6
:1001F000CB01A091CC01B091CD0126B5A89B05C043
:100200002F3F19F00196A11DB11D3FBFBA2FA92F95
:10021000982F8827820F911DA11DB11DBC01CD0112
:1002200042E0660F771F881F991F4A95D1F70895FE
:10023000CF92DF92EF92FF920F931F93CF93DF93B2
:100240006C017A018B01C0E0D0E0CE15DF0581F0B2
:10025000D8016D918D01D601ED91FC910190F08155
:10026000E02DC6010995892B11F02196EECF7E0174
:10027000C701DF91CF911F910F91FF90EF90DF9019
:10028000CF9008950895CF93DF93AC01E091C3011F
:10029000F091C4013097F1F09091C2018091C101B9
:1002A0009817C0F090E0292F30E02617370754F454
:1002B000D901AF5CBE4FEA01C20FD31F28812C9336
:1002C0009F5FF1CF1092C2016093C101CB01DF911A
:1002D000CF910994DF91CF910895FC01538D448D06
:1002E000252F30E0842F90E0821B930B541710F0E1
:1002F000CF96089501970895FC01918D828D9817EE
:1003000061F0828DDF01A80FB11D5D968C91928DF9
:100310009F5F9F73928F90E008958FEF9FEF0895F6
:10032000FC01918D828D981731F0828DE80FF11DBF
:10033000858D90E008958FEF9FEF0895FC01918DDA
:10034000228D892F90E0805C9F4F821B91098F73D3
:10035000992708958EEC91E00E949E0121E0892B5F
:1003600009F420E0822F0895FC01848DDF01A80F9D
:10037000B11DA35ABF4F2C91848D90E001968F73CD
:100380009927848FA689B7892C93A089B1898C91EC
:10039000837080648C93938D848D981306C002883B
:1003A000F389E02D80818F7D80830895EF92FF9205
:1003B0000F931F93CF93DF93EC0181E0888F9B8D88
:1003C0008C8D981305C0E889F989808185FD26C048
:1003D000F62E0B8D10E00F5F1F4F0F731127E02ECD
:1003E0008C8DE8120CC00FB607FCFACFE889F989AA
:1003F000808185FFF5CFCE010E94B401F1CF8B8DB6
:10040000FE01E80FF11DE35AFF4FF0829FB7F89409
:100410000B8FEA89FB89808180620AC09FB7F894BC
:10042000EE89FF896083E889F9898081837080641F
:1004300080839FBF81E090E0DF91CF911F910F916A
:10044000FF90EF900895CF93DF93EC01888D882380
:10045000C9F0EA89FB89808185FD05C0A889B98931
:100460008C9186FD0FC00FB607FCF5CF808185FF0C
:10047000F2CFA889B9898C9185FFEDCFCE010E947A
:10048000B401E7CFDF91CF91089580E090E0892B10
:1004900029F00E94AA0181110C940000089585EDB5
:1004A0008093BC008091BC0084FDFCCF1092BE0103
:1004B000089540917101262F30E0240F311D213223
:1004C0003105DCF42091BE012430C9F4FC0180E048
:1004D00090E0861758F4309171012191DC01AF5AF8
:1004E000BE4FA30FB11D2C930196F3CF80917101E4
:1004F000680F6093710180E0089581E0089582E0C3
:1005000008950895E091C2018091C101E81730F487
:10051000F0E0EF5CFE4F808190E008958FEF9FEF59
:1005200008959091C2018091C101981750F4E92F6C
:10053000F0E0EF5CFE4F208130E09F5F9093C201BE
:1005400002C02FEF3FEFC90108958091C10190E0F3
:100550002091C201821B91090895CF93DF93CB01B3
:10056000EA01642F0E945902CE01DF91CF910895D4
:10057000CF93DF931F92CDB7DEB7698361E0CE01E1
:1005800001960E94590281E090E00F90DF91CF9197
:100590000895CF93DF93EC0160E08E810E94A60066
:1005A00061E08E810E94A60060E08E810E94A6001C
:1005B0008BE891E00197F1F7DF91CF910895CF9209
:1005C000DF92EF92FF920F931F93CF93DF936C0113
:1005D0007C0187E0E80EF11CC0E0D0E0062F10E0BF
:1005E000B8010C2E02C0759567950A94E2F7617008
:1005F000F70181917F010E94A6002196C430D105A8
:1006000079F7C601DF91CF911F910F91FF90EF9085
:10061000DF90CF900C94C902CF92DF92EF92FF92BD
:100620000F931F93CF93DF93EC01F62E642F8C81F1
:100630000E94A6008D818F3F19F060E00E94A60005
:100640008F850F2D10E084FF25C06E0187E0C80E56
:10065000D11CE12CF12CB8010E2C02C075956795C8
:100660000A94E2F76170F60181916F010E94A60081
:10067000FFEFEF1AFF0A88E0E816F10461F7CE01F8
:10068000DF91CF911F910F91FF90EF90DF90CF906E
:100690000C94C902B80184E0759567958A95E1F7D5
:1006A000CE010E94DF026F2DCE01DF91CF911F910D
:1006B0000F91FF90EF90DF90CF900C94DF0240E01D
:1006C000682F87E792E00C940C03CF93DF9382307E
:1006D00028F09091860298609093860280938A0217
:1006E00010928B0280E480938C0280E180938D02D3
:1006F00080E580938E0280917B020E94870080912A
:100700007C028F3F11F00E94870080917D020E9441
:100710008700C7E7D2E09E012757324080918602CA
:1007200084FD03C084E090E002C088E090E0219660
:100730002817390724F48E810E948700ECCF8BE3C1
:100740009DE00197F1F760E080917B020E94A60096
:1007500060E080917D020E94A60080917C028F3F24
:1007600019F060E00E94A6008091860284FD20C0FE
:1007700063E087E792E00E94DF02CBE4D6E4CE019B
:100780000197F1F763E087E792E00E94DF0221978B
:10079000F1F763E087E792E00E94DF0283E592E0F1
:1007A0000197F1F762E087E792E00E94DF0215C04F
:1007B00080620E945F038BE496E40197F1F78091D9
:1007C000860280620E945F0383E592E00197F1F761
:1007D0008091860280620E945F038091860280621F
:1007E0000E945F0384E0809387028CE00E945F0395
:1007F00081E00E945F038BE39FE10197F1F782E0C4
:100800008093880286E0DF91CF910C945F0341E0F2
:100810000E940C0381E090E00895089580E090E04C
:100820000895FF920F931F93CF93DF93EC01809174
:1008300030018823B1F081E00E945F038BE39FE1E8
:100840000197F1F7E1E080918A028111E0E0E19502
:10085000F0E0E958FD4F848980680E945F031092A0
:10086000300100E010E00C171D072CF58BE692E03C
:100870000E949102F82E8EE2F81204C081E080936B
:10088000300119C06F2D87E792E00E9407048DE3C5
:10089000F8120EC0E0918A02E23010F4E15001C07B
:1008A000E1E0F0E0E958FD4F848980680E945F0331
:1008B0000F5F1F4FD8CFDF91CF911F910F91FF9006
:1008C00008950E946F071F920F920FB60F92112486
:1008D0002F933F938F939F93AF93BF938091C601C4
:1008E0009091C701A091C801B091C9013091C50193
:1008F00023E0230F2D3720F40196A11DB11D05C063
:1009000026E8230F0296A11DB11D2093C5018093F7
:10091000C6019093C701A093C801B093C90180910B
:10092000CA019091CB01A091CC01B091CD0101966B
:10093000A11DB11D8093CA019093CB01A093CC015E
:10094000B093CD01BF91AF919F918F913F912F9126
:100950000F900FBE0F901F9018951F920F920FB619
:100960000F9211242F933F934F935F936F937F9335
:100970008F939F93AF93BF93EF93FF938EEC91E090
:100980000E94B401FF91EF91BF91AF919F918F9120
:100990007F916F915F914F913F912F910F900FBE7B
:1009A0000F901F9018951F920F920FB60F9211245F
:1009B0002F938F939F93EF93FF93E091DE01F0913C
:1009C000DF018081E091E401F091E50182FD12C038
:1009D00090818091E7018F5F8F732091E8018217EA
:1009E00051F0E091E701F0E0E253FE4F958F8093E4
:1009F000E70101C08081FF91EF919F918F912F912D
:100A00000F900FBE0F901F9018951F920F920FB668
:100A10000F9211242F933F934F935F936F937F9384
:100A20008F939F93AF93BF93EF93FF938091B90000
:100A3000887F803609F49CC068F5883209F45BC071
:100A400090F4803109F454C038F4882309F4F6C0D6
:100A5000883009F44DC0F6C0883109F44CC08032AA
:100A600009F45DC0EFC0803409F468C048F48033F5
:100A700009F455C0883309F0E5C080939401D8C0CB
:100A8000803509F44FC0883509F45DC0883409F019
:100A9000D9C0D6C0883909F4C7C0A8F4883709F48A
:100AA00067C038F4883609F463C0803709F460C041
:100AB000C9C0883809F4B8C0803909F45FC08038EB
:100AC00009F0C0C05BC0803B09F486C038F4803AAE
:100AD00009F466C0883A09F47FC0B4C0803C09F4C8
:100AE000A7C0883C09F4A4C0883B09F48AC0AAC006
:100AF0008091B70110C09091B6018091B50198170F
:100B000070F5E091B60181E08E0F8093B601F0E0C0
:100B1000EB56FE4F80818093BB0085EC86C08093AE
:100B200094018EC0E091B60181E08E0F8093B601F2
:100B30008091BB00F0E0EB56FE4F80839091B601B0
:100B40008091B5016EC0E091B60181E08E0F809377
:100B5000B6018091BB00F0E0EB56FE4F80838091A0
:100B6000BD0181116DC081E08093BC0184EA61C048
:100B700083E08093BE0110929301CFCF80919301C7
:100B8000803208F051C0E091930181E08E0F809394
:100B900093018091BB00F0E0ED58FE4F8083BDCF04
:100BA00085EC8093BC001092BE018091930180324D
:100BB00030F4E0919301F0E0ED58FE4F1082609127
:100BC000930170E0E091B801F091B90183E791E001
:100BD00009951092930136C084E08093BE01109273
:100BE000720110927101E091BA01F091BB01099577
:100BF00080917101811105C081E080937101109293
:100C00005101E091720181E08E0F80937201F0E05A
:100C1000EF5AFE4F80818093BB00909172018091CA
:100C20007101981708F479CF85E88093BC000AC059
:100C300085EC8093BC001092BE0104C01092940118
:100C40000E944F02FF91EF91BF91AF919F918F91C1
:100C50007F916F915F914F913F912F910F900FBEB8
:100C60000F901F901895EEECF1E01382128288EE3F
:100C700093E0A0E0B0E084839583A683B78324E06B
:100C800031E03183208325EC30E03587248724EC64
:100C900030E03787268720EC30E0318B208B21EC49
:100CA00030E0338B228B22EC30E0358B248B26EC2A
:100CB00030E0378B268B118E128E138E148EEBE65E
:100CC000F2E01382128284839583A683B78386E140
:100CD00091E091838083E7E7F2E01382128288E259
:100CE00091E09183808382E0848383E0858384E044
:100CF000868385E0878386E0808787E0818788E038
:100D000082871386148615861686178681E00C94D2
:100D10006503789484B5826084BD84B5816084BDA8
:100D200085B5826085BD85B5816085BD80916E0089
:100D3000816080936E0010928100809181008260BA
:100D400080938100809181008160809381008091F7
:100D500080008160809380008091B10084608093E6
:100D6000B1008091B00081608093B00080917A00E2
:100D7000846080937A0080917A00826080937A0008
:100D800080917A00816080937A0080917A008068F7
:100D900080937A001092C100E091DE01F091DF01B2
:100DA00082E08083E091DA01F091DB011082E09132
:100DB000DC01F091DD018FEC80831092E601E0917F
:100DC000E201F091E30186E08083E091E001F0919F
:100DD000E101808180618083E091E001F091E10197
:100DE000808188608083E091E001F091E101808161
:100DF00080688083E091E001F091E10180818F7D46
:100E0000808382E00E9465031092C2011092C101AA
:100E10001092C0011092BF011092BE0181E0809338
:100E2000BD011092BC0161E082E10E94A60061E078
:100E300083E10E94A6008091B9008E7F8093B90063
:100E40008091B9008D7F8093B90088E48093B800C9
:100E500085E48093BC0082E491E09093BB01809391
:100E6000BA0183E491E09093B9018093B80188E0DE
:100E70008093BA0081E194E09093C4018093C30110
:100E80000E94F3006B017C0184E6882E912CA12C3A
:100E9000B12C0E94F300DC01CB018C199D09AE0935
:100EA000BF09883E9340A105B10598F321E0821A5D
:100EB0009108A108B10888EEC80E83E0D81EE11C95
:100EC000F11C81149104A104B10419F70E94450298
:100ED000D7CFEE0FFF1F0590F491E02D099481E02C
:0C0EE00090E0F8940C947407F894FFCF95
:100EEC0000000000D60118016D0123029E017C0157
:100EFC00900100000000B802AD020E048102A502B0
:100F0C009102820200000000070418010E040D0477
:00000001FF
