:100000000C9462000C948A000C948A000C948A0070
:100010000C948A000C948A000C948A000C948A0038
:100020000C948A000C948A000C948A000C948A0028
:100030000C948A000C948A000C948A000C948A0018
:100040000C942A030C948A000C949A030C94740365
:100050000C948A000C948A000C948A000C948A00F8
:100060000C94CC030C948A000000000024002700AC
:100070002A000000000023002600290000000000E4
:10008000250028002B0004040404040404040202D4
:100090000202020203030303030301020408102007
:1000A0004080010204081020010204081020000012
:1000B0000008000201000003040700000000000027
:1000C0000000FA0411241FBECFEFD8E0DEBFCDBF81
:1000D00011E0A0E0B1E0EEE6FDE002C005900D9277
:1000E000AE32B107D9F722E0AEE2B1E001C01D9215
:1000F000A639B207E1F710E0C2E6D0E004C02197CC
:10010000FE010E94AA06C136D107C9F70E94330535
:100110000C94B5060C940000833081F028F48130F3
:1001200099F08230A1F008958730A9F08830B9F0B5
:100130008430D1F4809180008F7D03C08091800055
:100140008F7780938000089584B58F7702C084B53F
:100150008F7D84BD08958091B0008F7703C080911A
:10016000B0008F7D8093B0000895CF93DF93282F48
:1001700030E0F901E255FF4F8491F901E656FF4F57
:10018000D491F901EA57FF4FC491CC2389F0811132
:100190000E948C00EC2FF0E0EE0FFF1FE458FF4FA1
:1001A000A591B4918FB7F894EC91ED2BEC938FBFA0
:1001B000DF91CF9108953FB7F8948091E901909134
:1001C000EA01A091EB01B091EC0126B5A89B05C016
:1001D0002F3F19F00196A11DB11D3FBFBA2FA92FC6
:1001E000982F8827820F911DA11DB11DBC01CD0143
:1001F00042E0660F771F881F991F4A95D1F708952F
:100200008F929F92AF92BF92CF92DF92EF92FF9226
:100210006B017C010E94DB004B015C01C114D10425
:10022000E104F104F1F00E94DB00DC01CB0188194C
:100230009909AA09BB09883E9340A105B10570F34D
:1002400021E0C21AD108E108F10888EE880E83E0A7
:10025000981EA11CB11CC114D104E104F10419F7CA
:10026000DDCFFF90EF90DF90CF90BF90AF909F9049
:100270008F900895CF92DF92EF92FF920F931F938A
:10028000CF93DF936C017A018B01C0E0D0E0CE15F3
:10029000DF0581F0D8016D918D01D601ED91FC91C2
:1002A0000190F081E02DC6010995892B11F021966E
:1002B000EECF7E01C701DF91CF911F910F91FF908B
:1002C000EF90DF90CF90089508950895FC01538D2D
:1002D000448D252F30E0842F90E0821B930B541720
:1002E00010F0CF96089501970895FC01918D828DAD
:1002F000981761F0828DDF01A80FB11D5D968C917A
:10030000928D9F5F9F73928F90E008958FEF9FEF84
:100310000895FC01918D828D981731F0828DE80F40
:10032000F11D858D90E008958FEF9FEF0895FC01FA
:10033000918D228D892F90E0805C9F4F821B9109C7
:100340008F73992708958DEE91E00E94970121E027
:10035000892B09F420E0822F0895FC01848DDF01B0
:10036000A80FB11DA35ABF4F2C91848D90E0019628
:100370008F739927848FA689B7892C93A089B18917
:100380008C91837080648C93938D848D981306C0B8
:100390000288F389E02D80818F7D80830895EF921C
:1003A000FF920F931F93CF93DF93EC0181E0888F2F
:1003B0009B8D8C8D981305C0E889F989808185FD16
:1003C00026C0F62E0B8D10E00F5F1F4F0F73112705
:1003D000E02E8C8DE8120CC00FB607FCFACFE8892E
:1003E000F989808185FFF5CFCE010E94AD01F1CF63
:1003F0008B8DFE01E80FF11DE35AFF4FF0829FB78E
:10040000F8940B8FEA89FB89808180620AC09FB7CC
:10041000F894EE89FF896083E889F9898081837087
:10042000806480839FBF81E090E0DF91CF911F9136
:100430000F91FF90EF900895CF93DF93EC01888D9B
:100440008823C9F0EA89FB89808185FD05C0A889D8
:10045000B9898C9186FD0FC00FB607FCF5CF80815E
:1004600085FFF2CFA889B9898C9185FFEDCFCE01A8
:100470000E94AD01E7CFDF91CF91089580E090E039
:10048000892B29F00E94A30181110C94000008958A
:1004900085ED8093BC008091BC0084FDFCCF109260
:1004A000BD01089540916E01262F30E0240F311DCB
:1004B00021323105DCF42091BD012430C9F4FC0166
:1004C00080E090E0861758F430916E012191DC01B4
:1004D000A25BBE4FA30FB11D2C930196F3CF809169
:1004E0006E01680F60936E0180E0089581E00895C9
:1004F00082E008950895E091960180919501E817B2
:1005000030F4F0E0E25DFE4F808190E008958FEFDF
:100510009FEF08959091960180919501981750F45E
:10052000E92FF0E0E25DFE4F208130E09F5F909385
:10053000960102C02FEF3FEFC90108958091950108
:1005400090E020919601821B91090895CF92DF924D
:10055000EF92FF920F931F93CF93DF937C01CB0118
:100560008A012091BE01222389F0EB016B01C40EA8
:10057000D51ECC15DD0569F06991D701ED91FC918F
:100580000190F081E02DC7010995F3CF642F0E94FF
:100590005202C801DF91CF911F910F91FF90EF9010
:1005A000DF90CF900895CF93DF931F92CDB7DEB742
:1005B00069832091BE012223D1F02091E1012032F4
:1005C00040F021E030E0FC013383228380E090E0C2
:1005D00015C08091BF01E82FF0E0E054FE4F9981F3
:1005E00090838F5F8093BF018093E10105C061E03C
:1005F000CE0101960E94520281E090E00F90DF91BF
:10060000CF910895089580E090E00895CF93DF930F
:10061000009779F0FC0101900020E9F73197AF01D4
:10062000481B590BBC018DEE91E00E943A01EC0190
:1006300002C0C0E0D0E042E050E064E271E08DEE44
:1006400091E00E943A018C0F9D1FDF91CF91089598
:100650000E94B0061F920F920FB60F9211242F9393
:100660003F938F939F93AF93BF938091E5019091B8
:10067000E601A091E701B091E8013091E40123E0A7
:10068000230F2D3720F40196A11DB11D05C026E8CA
:10069000230F0296A11DB11D2093E4018093E50173
:1006A0009093E601A093E701B093E8018091E901FE
:1006B0009091EA01A091EB01B091EC010196A11D8E
:1006C000B11D8093E9019093EA01A093EB01B093EF
:1006D000EC01BF91AF919F918F913F912F910F901E
:1006E0000FBE0F901F9018951F920F920FB60F928A
:1006F00011242F933F934F935F936F937F938F9327
:100700009F93AF93BF93EF93FF938DEE91E00E9481
:10071000AD01FF91EF91BF91AF919F918F917F912B
:100720006F915F914F913F912F910F900FBE0F905E
:100730001F9018951F920F920FB60F9211242F93AE
:100740008F939F93EF93FF93E091FD01F091FE0152
:100750008081E0910302F091040282FD12C0908139
:10076000809106028F5F8F7320910702821751F0EC
:10077000E0910602F0E0E351FE4F958F8093060270
:1007800001C08081FF91EF919F918F912F910F90E8
:100790000FBE0F901F9018951F920F920FB60F92D9
:1007A00011242F933F934F935F936F937F938F9376
:1007B0009F93AF93BF93EF93FF938091B900887F8E
:1007C000803609F49CC068F5883209F45BC090F467
:1007D000803109F454C038F4882309F4F6C0883015
:1007E00009F44DC0F6C0883109F44CC0803209F4D8
:1007F0005DC0EFC0803409F468C048F4803309F468
:1008000055C0883309F0E5C08093BB01D8C080355E
:1008100009F44FC0883509F45DC0883409F0D9C0A7
:10082000D6C0883909F4C7C0A8F4883709F467C06E
:1008300038F4883609F463C0803709F460C0C9C051
:10084000883809F4B8C0803909F45FC0803809F0ED
:10085000C0C05BC0803B09F486C038F4803A09F41C
:1008600066C0883A09F47FC0B4C0803C09F4A7C0D0
:10087000883C09F4A4C0883B09F48AC0AAC08091CE
:10088000980110C09091BA018091B901981770F544
:10089000E091BA0181E08E0F8093BA01F0E0E75653
:1008A000FE4F80818093BB0085EC86C08093BB01A6
:1008B0008EC0E091BA0181E08E0F8093BA018091E1
:1008C000BB00F0E0E756FE4F80839091BA01809123
:1008D000B9016EC0E091BA0181E08E0F8093BA0138
:1008E0008091BB00F0E0E756FE4F80838091BC0111
:1008F00081116DC081E08093970184EA61C083E03B
:100900008093BD0110929001CFCF809190018032F1
:1009100008F051C0E091900181E08E0F809390012A
:100920008091BB00F0E0E059FE4F8083BDCF85ECA5
:100930008093BC001092BD0180919001803230F410
:10094000E0919001F0E0E059FE4F1082609190013B
:1009500070E0E0919101F091920180E791E00995BA
:100960001092900136C084E08093BD0110926F0117
:1009700010926E01E0919301F0919401099580919C
:100980006E01811105C081E080936E0110924E01CD
:10099000E0916F0181E08E0F80936F01F0E0E25BE8
:1009A000FE4F80818093BB0090916F0180916E011A
:1009B000981708F479CF85E88093BC000AC085ECCD
:1009C0008093BC001092BD0104C01092BB010E9434
:1009D0004802FF91EF91BF91AF919F918F917F91CD
:1009E0006F915F914F913F912F910F900FBE0F909C
:1009F0001F901895EDEEF1E01382128288EE93E0DD
:100A0000A0E0B0E084839583A683B78324E031E03F
:100A10003183208325EC30E03587248724EC30E0D7
:100A20003787268720EC30E0318B208B21EC30E0BB
:100A3000338B228B22EC30E0358B248B26EC30E09C
:100A4000378B268B118E128E138E148EEAE8F2E00D
:100A50001382128284839583A683B78386E191E013
:100A6000918380830895789484B5826084BD84B531
:100A7000816084BD85B5826085BD85B5816085BD99
:100A800080916E00816080936E0010928100809151
:100A900081008260809381008091810081608093D9
:100AA0008100809180008160809380008091B100FE
:100AB00084608093B1008091B00081608093B00029
:100AC00080917A00846080937A0080917A008260BD
:100AD00080937A0080917A00816080937A0080917F
:100AE0007A00806880937A001092C100109296017B
:100AF000109295011092BF011092E1011092BD0178
:100B000081E08093BC011092970182E10E94B500C0
:100B100083E10E94B5008091B9008E7F8093B90077
:100B20008091B9008D7F8093B90088E48093B800EC
:100B300085E48093BC0084E691E0909394018093D7
:100B4000930185E691E09093920180939101E09169
:100B5000FD01F091FE0182E08083E091F901F091C6
:100B6000FA011082E091FB01F091FC018FEC80838F
:100B700010920502E0910102F091020286E080836A
:100B8000E091FF01F0910002808180618083E0911B
:100B9000FF01F0910002808188608083E091FF0175
:100BA000F0910002808180688083E091FF01F091E4
:100BB000000280818F7D8083C3EAD0E0FE01249112
:100BC0000FE810E0F80184918823C9F090E0880FC5
:100BD000991FFC01E859FF4FA591B491FC01E4581D
:100BE000FF4F459154913FB7F8949C91822F809587
:100BF00098239C93FA019081892380833FBF97EBD0
:100C0000C92E90E0D92EFF24F39424E0E22E32E0A6
:100C1000B32EAA24AA9445EE942E55EC852EF60107
:100C20008491FE017490F8016490662009F43AC042
:100C300081110E948C00E62DF0E0EE0FFF1FEE58B0
:100C4000FF4FA591B4918C91782261F1F092BE0191
:100C5000E092E0011092BF011092E1018091E20167
:100C60009091E30101969093E3018093E20180FF6C
:100C700022C06FE48AE892E00E94D30287E291E00A
:100C80000E9406032091E1012132E8F01092BF0199
:100C90001092E1011092BE0168EC70E080E090E0FB
:100CA0000E94000162E370E080E090E00E94000199
:100CB0000E943E02B4CF66E48AE892E00E94D3022A
:100CC0008AE291E0DDCF8091BD018111FCCF80915E
:100CD000E001B092BD01F092BC01A092BB01109264
:100CE000BA012093B901A0ECB1E0E9E9F1E090E0AC
:100CF000291721F03D9131939F5FFACF109298010F
:100D000090919801880F892B809398018091970189
:100D1000813069F410929701809198018093BB0013
:100D20008091BC0083FDF8CF8092BC0002C09092FD
:100D3000BC008091BD018230E1F38091BB018F3F07
:100D400009F4A4CF8091BB01803209F49FCF809138
:100D5000BB019CCFEE0FFF1F0590F491E02D09948D
:0E0D600081E090E0F8940C94B506F894FFCF73
:100D6E0000000000CF013A0166011C0297017501D7
:100D7E00890100000000D302A60203037A029E023C
:0E0D8E008A027B020D0A004F4E004F464600BF
:00000001FF
