:100000000C9435000C945D000C945D000C945D0024
:100010000C945D000C945D000C945D000C945D00EC
:100020000C945D000C945D000C945D000C945D00DC
:100030000C945D000C945D000C945D000C945D00CC
:100040000C94E0010C945D000C9450020C942A0274
:100050000C945D000C945D000C945D000C945D00AC
:100060000C945D000C945D00220311241FBECFEFA1
:10007000D8E0DEBFCDBF11E0A0E0B1E0E8EBF6E0F4
:1000800002C005900D92AE32B107D9F721E0AEE281
:10009000B1E001C01D92A43DB207E1F710E0C5E355
:1000A000D0E004C02197FE010E944F03C433D10762
:1000B000C9F70E9482020C945A030C9400003FB7C7
:1000C000F8948091330190913401A0913501B09161
:1000D000360126B5A89B05C02F3F19F00196A11D3A
:1000E000B11D3FBFBA2FA92F982F8827820F911DCE
:1000F000A11DB11DBC01CD0142E0660F771F881F15
:10010000991F4A95D1F708958F929F92AF92BF920F
:10011000CF92DF92EF92FF920E945F004B015C0151
:1001200088EEC82E83E0D82EE12CF12C0E945F00CF
:10013000DC01CB0188199909AA09BB09883E9340C3
:10014000A105B10598F321E0C21AD108E108F10830
:1001500088EE880E83E0981EA11CB11CC114D10446
:10016000E104F10419F7FF90EF90DF90CF90BF907A
:10017000AF909F908F900895CF92DF92EF92FF9271
:100180000F931F93CF93DF936C017A018B01C0E033
:10019000D0E0CE15DF0581F0D8016D918D01D6013B
:1001A000ED91FC910190F081E02DC6010995892B1C
:1001B00011F02196EECF7E01C701DF91CF911F9103
:1001C0000F91FF90EF90DF90CF900895089580E019
:1001D00090E00895FC01538D448D252F30E0842F4D
:1001E00090E0821B930B541710F0CF96089501975F
:1001F0000895FC01918D828D981761F0828DDF0149
:10020000A80FB11D5D968C91928D9F5F9F73928F09
:1002100090E008958FEF9FEF0895FC01918D828DFE
:10022000981731F0828DE80FF11D858D90E00895CB
:100230008FEF9FEF0895FC01918D228D892F90E023
:10024000805C9F4F821B91098F739927089587E3E4
:1002500091E00E941B0121E0892B09F420E0822F0C
:100260000895FC01848DDF01A80FB11DA35ABF4F73
:100270002C91848D90E001968F739927848FA689A5
:10028000B7892C93A089B1898C91837080648C93F9
:10029000938D848D981306C00288F389E02D8081A8
:1002A0008F7D80830895EF92FF920F931F93CF93DA
:1002B000DF93EC0181E0888F9B8D8C8D981305C0B6
:1002C000E889F989808185FD26C0F62E0B8D10E026
:1002D0000F5F1F4F0F731127E02E8C8DE8120CC09B
:1002E0000FB607FCFACFE889F989808185FFF5CF41
:1002F000CE010E943101F1CF8B8DFE01E80FF11D7F
:10030000E35AFF4FF0829FB7F8940B8FEA89FB897D
:10031000808180620AC09FB7F894EE89FF8960836C
:10032000E889F98980818370806480839FBF81E040
:1003300090E0DF91CF911F910F91FF90EF90089582
:10034000CF93DF93EC01888D8823C9F0EA89FB897C
:10035000808185FD05C0A889B9898C9186FD0FC073
:100360000FB607FCF5CF808185FFF2CFA889B98948
:100370008C9185FFEDCFCE010E943101E7CFDF9157
:10038000CF91089580E090E0892B29F00E94270109
:1003900081110C9400000895009769F0FC01019010
:1003A0000020E9F73197AF01481B590BBC0187E3E7
:1003B00091E00C94BC0080E090E008950E94550309
:1003C0001F920F920FB60F9211242F933F938F938A
:1003D0009F93AF93BF9380912F0190913001A09193
:1003E0003101B091320130912E0123E0230F2D37DE
:1003F00020F40196A11DB11D05C026E8230F029629
:10040000A11DB11D20932E0180932F0190933001E7
:10041000A0933101B0933201809133019091340166
:10042000A0913501B09136010196A11DB11D8093B7
:10043000330190933401A0933501B0933601BF91FD
:10044000AF919F918F913F912F910F900FBE0F9081
:100450001F9018951F920F920FB60F9211242F9391
:100460003F934F935F936F937F938F939F93AF933C
:10047000BF93EF93FF9387E391E00E943101FF91D7
:10048000EF91BF91AF919F918F917F916F915F910C
:100490004F913F912F910F900FBE0F901F90189585
:1004A0001F920F920FB60F9211242F938F939F9349
:1004B000EF93FF93E0914701F09148018081E09133
:1004C0004D01F0914E0182FD12C09081809150014A
:1004D0008F5F8F7320915101821751F0E09150018D
:1004E000F0E0E95CFE4F958F8093500101C0808160
:1004F000FF91EF919F918F912F910F900FBE0F90D1
:100500001F901895CF93DF93CDB7DEB7A1970FB6A5
:10051000F894DEBF0FBECDBF789484B5826084BDF1
:1005200084B5816084BD85B5826085BD85B58160F7
:1005300085BD80916E00816080936E001092810075
:100540008091810082608093810080918100816030
:1005500080938100809180008160809380008091F1
:10056000B10084608093B1008091B000816080937D
:10057000B00080917A00846080937A0080917A0044
:10058000826080937A0080917A00816080937A0003
:1005900080917A00806880937A001092C100E09187
:1005A0004701F091480182E08083E0914301F0919E
:1005B00044011082E0914501F09146018FEC808367
:1005C00010924F01E0914B01F0914C0186E0808345
:1005D000E0914901F0914A01808180618083E0913E
:1005E0004901F0914A01808188608083E09149014E
:1005F000F0914A01808180688083E0914901F09107
:100600004A0180818F7D808319E382E191E00E941D
:10061000CC0119A218A3CE0180960E94CC018FE1D3
:1006200091E00E94CC010E94840082E291E00E944D
:10063000CC018FE191E00E94CC010E9484000E94D5
:10064000C201E3CFE7E3F1E01382128288EE93E088
:10065000A0E0B0E084839583A683B78384E091E033
:100660009183808385EC90E09587848784EC90E08B
:100670009787868780EC90E0918B808B81EC90E06F
:10068000938B828B82EC90E0958B848B86EC90E050
:10069000978B868B118E128E138E148E0895EE0F0B
:1006A000FF1F0590F491E02D099481E090E0F8940B
:0806B0000C945A03F894FFCFEB
:1006B800000000005301BC00EA00A0011B01F90082
:1006C8000D0168656C6C6F20776F726C6420000D8B
:0E06D8000A00686F7720796120646F696E00F8
:00000001FF
