:100000000C9435000C945D000C945D000C945D0024
:100010000C945D000C945D000C945D000C945D00EC
:100020000C945D000C945D000C945D000C945D00DC
:100030000C945D000C945D000C945D000C945D00CC
:100040000C94F4020C945D000C9464030C943E0335
:100050000C945D000C945D000C945D000C945D00AC
:100060000C945D000C945D00130411241FBECFEFAF
:10007000D8E0DEBFCDBF11E0A0E0B1E0EEEDF8E0EA
:1000800002C005900D92AA36B107D9F722E0AAE680
:10009000B1E001C01D92A431B207E1F710E0C5E361
:1000A000D0E004C02197FE010E946204C433D1074E
:1000B000C9F70E9496030C946D040C9400003FB79E
:1000C000F8948091730190917401A0917501B091A1
:1000D000760126B5A89B05C02F3F19F00196A11DFA
:1000E000B11D3FBFBA2FA92F982F8827820F911DCE
:1000F000A11DB11DBC01CD0142E0660F771F881F15
:10010000991F4A95D1F70895CF92DF92EF92FF920F
:100110000F931F93CF93DF936C017A018B01C0E0A3
:10012000D0E0CE15DF0581F0D8016D918D01D601AB
:10013000ED91FC910190F081E02DC6010995892B8C
:1001400011F02196EECF7E01C701DF91CF911F9173
:100150000F91FF90EF90DF90CF900895089580E089
:1001600090E00895FC01538D448D252F30E0842FBD
:1001700090E0821B930B541710F0CF9608950197CF
:100180000895FC01918D828D981761F0828DDF01B9
:10019000A80FB11D5D968C91928D9F5F9F73928F7A
:1001A00090E008958FEF9FEF0895FC01918D828D6F
:1001B000981731F0828DE80FF11D858D90E008953C
:1001C0008FEF9FEF0895FC01918D228D892F90E094
:1001D000805C9F4F821B91098F739927089587E751
:1001E00091E00E94E30021E0892B09F420E0822FB6
:1001F0000895FC01848DDF01A80FB11DA35ABF4FE4
:100200002C91848D90E001968F739927848FA68915
:10021000B7892C93A089B1898C91837080648C9369
:10022000938D848D981306C00288F389E02D808118
:100230008F7D80830895EF92FF920F931F93CF934A
:10024000DF93EC0181E0888F9B8D8C8D981305C026
:10025000E889F989808185FD26C0F62E0B8D10E096
:100260000F5F1F4F0F731127E02E8C8DE8120CC00B
:100270000FB607FCFACFE889F989808185FFF5CFB1
:10028000CE010E94F900F1CF8B8DFE01E80FF11D28
:10029000E35AFF4FF0829FB7F8940B8FEA89FB89EE
:1002A000808180620AC09FB7F894EE89FF896083DD
:1002B000E889F98980818370806480839FBF81E0B1
:1002C00090E0DF91CF911F910F91FF90EF900895F3
:1002D000CF93DF93EC01888D8823C9F0EA89FB89ED
:1002E000808185FD05C0A889B9898C9186FD0FC0E4
:1002F0000FB607FCF5CF808185FFF2CFA889B989B9
:100300008C9185FFEDCFCE010E94F900E7CFDF9100
:10031000CF91089580E090E0892B29F00E94EF00B2
:1003200081110C9400000895009769F0FC01019080
:100330000020E9F73197AF01481B590BBC0187E753
:1003400091E00C94840080E090E008958F929F9259
:10035000AF92BF92CF92DF92EF92FF920F931F93D3
:10036000CF93DF93CDB7DEB7A1970FB6F894DEBF7A
:100370000FBECDBF6C01990FEE08FF08F7FE2BC032
:100380006DE287E791E00E941B018C012227332751
:10039000A9012C193D094E095F0919A2CE018196C8
:1003A0007C019AE0892E912CA12CB12CCA01B901B3
:1003B000A50194010E944004605DF70162937F01F2
:1003C000211531054105510589F7CF010E9494019E
:1003D000800F911F1DC0A701960119A28E010F5D0C
:1003E0001F4F8AE0C82ED12CE12CF12CCA01B90193
:1003F000A70196010E944004605DF80162938F019D
:10040000211531054105510589F7CF010E9494015D
:10041000A1960FB6F894DEBF0FBECDBFDF91CF918E
:100420001F910F91FF90EF90DF90CF90BF90AF9012
:100430009F908F9008958F929F92AF92BF92CF928C
:10044000DF92EF92FF920F931F93CF9382E191E09F
:100450000E94940185E291E00E94940187E791E077
:100460000E94E300181619063CF10E945F006B0120
:100470007C0184E6882E912CA12CB12C0E945F0077
:10048000DC01CB018C199D09AE09BF09883E934060
:10049000A105B10598F321E0821A9108A108B108DD
:1004A00088EEC80E83E0D81EE11CF11C8114910473
:1004B000A104B10419F7D2CF87E791E00E94C100EF
:1004C000C82FE0906A01F0906B0100916C011091CF
:1004D0006D0188E291E00E9494016C2F87E791E022
:1004E0000E941B0185E291E00E949401C73591F0C2
:1004F0003CF4C434D1F0C33589F0C134C9F412C01E
:10050000C43699F01CF4C13669F012C0C33731F01B
:10051000C73771F481E0E81AF1080CC02FEFE21A36
:10052000F20A08C00150110905C00F5F1F4F02C039
:100530000E94E80284E0E816F10418F40430110582
:1005400068F0CF911F910F91FF90EF90DF90CF90C7
:10055000BF90AF909F908F900C94E80283E391E05E
:100560000E94940180916A0190916B010E94A60102
:1005700086E491E00E94940180916C0190916D015C
:100580000E94A60188E491E00E949401C7010E94A4
:10059000A60186E491E00E949401C8010E94A60190
:1005A00086E291E00E949401F0926B01E0926A0170
:1005B00010936D0100936C01CF911F910F91FF90EB
:1005C000EF90DF90CF90BF90AF909F908F90089565
:1005D0008DE491E00E94940185E291E00E949401F3
:1005E0000C941B020E9468041F920F920FB60F9288
:1005F00011242F933F938F939F93AF93BF93809139
:100600006F0190917001A0917101B09172013091D0
:100610006E0123E0230F2D3720F40196A11DB11D9B
:1006200005C026E8230F0296A11DB11D20936E017F
:1006300080936F0190937001A0937101B093720148
:100640008091730190917401A0917501B091760130
:100650000196A11DB11D8093730190937401A09325
:100660007501B0937601BF91AF919F918F913F91AA
:100670002F910F900FBE0F901F9018951F920F9201
:100680000FB60F9211242F933F934F935F936F9365
:100690007F938F939F93AF93BF93EF93FF9387E7DE
:1006A00091E00E94F900FF91EF91BF91AF919F916E
:1006B0008F917F916F915F914F913F912F910F900B
:1006C0000FBE0F901F9018951F920F920FB60F92AA
:1006D00011242F938F939F93EF93FF93E0918701C2
:1006E000F09188018081E0918D01F0918E0182FD71
:1006F00012C09081809190018F5F8F732091910142
:10070000821751F0E0919001F0E0E958FE4F958F8B
:100710008093900101C08081FF91EF919F918F9113
:100720002F910F900FBE0F901F901895789484B55D
:10073000826084BD84B5816084BD85B5826085BDDD
:1007400085B5816085BD80916E00816080936E006B
:10075000109281008091810082608093810080915D
:10076000810081608093810080918000816080930E
:1007700080008091B10084608093B1008091B000CE
:1007800081608093B00080917A00846080937A00C9
:1007900080917A00826080937A0080917A008160F3
:1007A00080937A0080917A00806880937A0010921A
:1007B000C100E0918701F091880182E08083E0919F
:1007C0008301F09184011082E0918501F09186010E
:1007D0008FEC808310928F01E0918B01F0918C015E
:1007E00086E08083E0918901F0918A0180818061B7
:1007F0008083E0918901F0918A0180818860808303
:10080000E0918901F0918A01808180688083E09184
:100810008901F0918A0180818F7D80830E941B0273
:100820000E948A01FBCFE7E7F1E01382128288EE93
:1008300093E0A0E0B0E084839583A683B78384E04F
:1008400091E09183808385EC90E09587848784ECA8
:1008500090E09787868780EC90E0918B808B81EC8D
:1008600090E0938B828B82EC90E0958B848B86EC6E
:1008700090E0978B868B118E128E138E148E0895B6
:10088000A1E21A2EAA1BBB1BFD010DC0AA1FBB1F94
:10089000EE1FFF1FA217B307E407F50720F0A21B06
:1008A000B30BE40BF50B661F771F881F991F1A9473
:1008B00069F760957095809590959B01AC01BD019D
:1008C000CF010895EE0FFF1F0590F491E02D0994DC
:0E08D00081E090E0F8940C946D04F894FFCF52
:1008DE00000000001B018400B2006801E300C100AB
:1008EE00D50057616974696E6720666F7220696EF4
:1008FE007075742E000D0A0047657420636861726E
:10090E003A2000506C61796572206D6F76656420B7
:10091E0066726F6D20002C0020746F2000496E7679
:10092E00616C696420696E7075742E20506C6561FF
:0A093E0073652072657472792E0053
:00000001FF
