:100000000C9435000C945D000C945D000C945D0024
:100010000C945D000C945D000C945D000C945D00EC
:100020000C945D000C945D000C945D000C945D00DC
:100030000C945D000C945D000C945D000C945D00CC
:100040000C94A8010C945D000C9418020C94F2011D
:100050000C945D000C945D000C945D000C945D00AC
:100060000C945D000C945D00620311241FBECFEF61
:10007000D8E0DEBFCDBF11E0A0E0B1E0EAEAFAE0EF
:1000800002C005900D92A433B107D9F721E0A4E393
:10009000B1E001C01D92AA3DB207E1F710E0C5E34F
:1000A000D0E004C02197FE010E944805C433D10767
:1000B000C9F70E944A020C9453050C9400003FB704
:1000C000F8948091390190913A01A0913B01B0914F
:1000D0003C0126B5A89B05C02F3F19F00196A11D34
:1000E000B11D3FBFBA2FA92F982F8827820F911DCE
:1000F000A11DB11DBC01CD0142E0660F771F881F15
:10010000991F4A95D1F70895CF92DF92EF92FF920F
:100110000F931F93CF93DF936C017A018B01C0E0A3
:10012000D0E0CE15DF0581F0D8016D918D01D601AB
:10013000ED91FC910190F081E02DC6010995892B8C
:1001400011F02196EECF7E01C701DF91CF911F9173
:100150000F91FF90EF90DF90CF900895089580E089
:1001600090E00895FC01538D448D252F30E0842FBD
:1001700090E0821B930B541710F0CF9608950197CF
:100180000895FC01918D828D981761F0828DDF01B9
:10019000A80FB11D5D968C91928D9F5F9F73928F7A
:1001A00090E008958FEF9FEF0895FC01918D828D6F
:1001B000981731F0828DE80FF11D858D90E008953C
:1001C0008FEF9FEF0895FC01918D228D892F90E094
:1001D000805C9F4F821B91098F73992708958DE34F
:1001E00091E00E94E30021E0892B09F420E0822FB6
:1001F0000895FC01848DDF01A80FB11DA35ABF4FE4
:100200002C91848D90E001968F739927848FA68915
:10021000B7892C93A089B1898C91837080648C9369
:10022000938D848D981306C00288F389E02D808118
:100230008F7D80830895EF92FF920F931F93CF934A
:10024000DF93EC0181E0888F9B8D8C8D981305C026
:10025000E889F989808185FD26C0F62E0B8D10E096
:100260000F5F1F4F0F731127E02E8C8DE8120CC00B
:100270000FB607FCFACFE889F989808185FFF5CFB1
:10028000CE010E94F900F1CF8B8DFE01E80FF11D28
:10029000E35AFF4FF0829FB7F8940B8FEA89FB89EE
:1002A000808180620AC09FB7F894EE89FF896083DD
:1002B000E889F98980818370806480839FBF81E0B1
:1002C00090E0DF91CF911F910F91FF90EF900895F3
:1002D000CF93DF93EC01888D8823C9F0EA89FB89ED
:1002E000808185FD05C0A889B9898C9186FD0FC0E4
:1002F0000FB607FCF5CF808185FFF2CFA889B989B9
:100300008C9185FFEDCFCE010E94F900E7CFDF9100
:10031000CF91089580E090E0892B29F00E94EF00B2
:1003200081110C9400000895009769F0FC01019080
:100330000020E9F73197AF01481B590BBC018DE351
:1003400091E00C94840080E090E008950E944E05B6
:100350001F920F920FB60F9211242F933F938F93FA
:100360009F93AF93BF938091350190913601A091F7
:100370003701B09138013091340123E0230F2D373C
:1003800020F40196A11DB11D05C026E8230F029699
:10039000A11DB11D20933401809335019093360146
:1003A000A0933701B09338018091390190913A01BF
:1003B000A0913B01B0913C010196A11DB11D80931C
:1003C000390190933A01A0933B01B0933C01BF9156
:1003D000AF919F918F913F912F910F900FBE0F90F2
:1003E0001F9018951F920F920FB60F9211242F9302
:1003F0003F934F935F936F937F938F939F93AF93AD
:10040000BF93EF93FF938DE391E00E94F900FF917A
:10041000EF91BF91AF919F918F917F916F915F917C
:100420004F913F912F910F900FBE0F901F901895F5
:100430001F920F920FB60F9211242F938F939F93B9
:10044000EF93FF93E0914D01F0914E018081E09197
:100450005301F091540182FD12C0908180915601A8
:100460008F5F8F7320915701821751F0E0915601F1
:10047000F0E0E35CFE4F958F8093560101C08081D0
:10048000FF91EF919F918F912F910F900FBE0F9041
:100490001F901895CF93DF93CDB7DEB7A4970FB613
:1004A000F894DEBF0FBECDBF789484B5826084BD62
:1004B00084B5816084BD85B5826085BD85B5816068
:1004C00085BD80916E00816080936E0010928100E6
:1004D00080918100826080938100809181008160A1
:1004E0008093810080918000816080938000809162
:1004F000B10084608093B1008091B00081608093EE
:10050000B00080917A00846080937A0080917A00B4
:10051000826080937A0080917A00816080937A0073
:1005200080917A00806880937A001092C100E091F7
:100530004D01F0914E0182E08083E0914901F091FC
:100540004A011082E0914B01F0914C018FEC8083C5
:1005500010925501E0915101F091520186E08083A3
:10056000E0914F01F0915001808180618083E091A2
:100570004F01F0915001808188608083E0914F01AC
:10058000F0915001808180688083E0914F01F0916B
:10059000500180818F7D80832AE0822E912CA12CB6
:1005A000B12C1E012DE1220E311C82E191E00E944E
:1005B000940119A28E010F5D1F4F2FEB33E240E033
:1005C00050E00AA31BA3CA01B901A50194010E942E
:1005D0002605605DF80162938F01E215F30599F736
:1005E000C1010E9494016EE28DE391E00E941B0123
:1005F00093E0F92E60E070EC8AE19FE3FA94FF202B
:1006000099F120E030E040E251E40E94B9042B016E
:100610003C010E94FC039B0140E050E019A20AA1AA
:100620001BA16CA3C32ED42EE52ECA01B901A501CE
:1006300094010E942605605DF80162938F012115E7
:1006400031054105510589F7CF010E9494016CA144
:100650007C2D8D2D9E2D0E942B049B01AC01C3018E
:10066000B2010E948F03CACF80E391E00E949401FF
:100670000E945F002B013C0188EEC82E83E0D82E3B
:10068000E12CF12C0E945F00DC01CB01841995095B
:10069000A609B709883E9340A105B10598F3F1E09A
:1006A000CF1AD108E108F10828EE420E23E0521ECD
:1006B000611C711CC114D104E104F10419F70E94FA
:1006C0008A0173CFEDE3F1E01382128288EE93E0AA
:1006D000A0E0B0E084839583A683B78384E091E0B3
:1006E0009183808385EC90E09587848784EC90E00B
:1006F0009787868780EC90E0918B808B81EC90E0EF
:10070000938B828B82EC90E0958B848B86EC90E0CF
:10071000978B868B118E128E138E148E08955058DF
:10072000BB27AA270E94A7030C947F040E94710490
:1007300038F00E94780420F039F49F3F19F426F431
:100740000C946E040EF4E095E7FB0C946804E92F1A
:100750000E94900458F3BA1762077307840795073D
:1007600020F079F4A6F50C94B2040EF4E0950B2E6B
:10077000BA2FA02D0B01B90190010C01CA01A001F3
:100780001124FF27591B99F0593F50F4503E68F14E
:100790001A16F040A22F232F342F4427585FF3CF8F
:1007A000469537952795A795F0405395C9F77EF460
:1007B0001F16BA0B620B730B840BBAF09150A1F0A9
:1007C000FF0FBB1F661F771F881FC2F70EC0BA0F2F
:1007D000621F731F841F48F4879577956795B795B7
:1007E000F7959E3F08F0B0CF9395880F08F09927B2
:1007F000EE0F9795879508950E94980488F09F576B
:1008000098F0B92F9927B751B0F0E1F0660F771F34
:10081000881F991F1AF0BA95C9F714C0B13091F02A
:100820000E94B204B1E008950C94B204672F782FAF
:100830008827B85F39F0B93FCCF3869577956795EF
:10084000B395D9F73EF490958095709561957F4F5B
:100850008F4F9F4F0895E89409C097FB3EF4909501
:100860008095709561957F4F8F4F9F4F9923A9F089
:10087000F92F96E9BB279395F69587957795679518
:10088000B795F111F8CFFAF4BB0F11F460FF1BC05C
:100890006F5F7F4F8F4F9F4F16C0882311F096E9EF
:1008A00011C0772321F09EE8872F762F05C066239D
:1008B00071F096E8862F70E060E02AF09A95660F56
:1008C000771F881FDAF7880F9695879597F908950F
:1008D00097F99F6780E870E060E008959FEF80ECF3
:1008E000089500240A941616170618060906089596
:1008F00000240A9412161306140605060895092EFC
:100900000394000C11F4882352F0BB0F40F4BF2B6A
:1009100011F460FF04C06F5F7F4F8F4F9F4F0895AA
:1009200057FD9058440F551F59F05F3F71F04795A0
:10093000880F97FB991F61F09F3F79F08795089585
:10094000121613061406551FF2CF4695F1DF08C0A4
:10095000161617061806991FF1CF869571056105C1
:1009600008940895E894BB2766277727CB0197F969
:1009700008950E94CC040C947F040E94710438F006
:100980000E94780420F0952311F00C9468040C94D4
:100990006E0411240C94B3040E94900470F3959F8C
:1009A000C1F3950F50E0551F629FF001729FBB2766
:1009B000F00DB11D639FAA27F00DB11DAA1F649F02
:1009C0006627B00DA11D661F829F2227B00DA11DB5
:1009D000621F739FB00DA11D621F839FA00D611D3B
:1009E000221F749F3327A00D611D231F849F600D5C
:1009F000211D822F762F6A2F11249F5750409AF085
:100A0000F1F088234AF0EE0FFF1FBB1F661F771F10
:100A1000881F91505040A9F79E3F510580F00C94DB
:100A200068040C94B3045F3FE4F3983ED4F38695D6
:100A300077956795B795F795E7959F5FC1F7FE2B7B
:100A4000880F911D9695879597F90895A1E21A2E22
:100A5000AA1BBB1BFD010DC0AA1FBB1FEE1FFF1F62
:100A6000A217B307E407F50720F0A21BB30BE40BB2
:100A7000F50B661F771F881F991F1A9469F76095F9
:100A80007095809590959B01AC01BD01CF010895B3
:100A9000EE0FFF1F0590F491E02D099481E090E0A6
:0A0AA000F8940C945305F894FFCF6E
:100AAA00000000001B018400B2006801E300C100DD
:100ABA00D500546F74616C2042616C616E6365206D
:100ACA00666F72203920706572736F6E733A0A000E
:040ADA000D0A000001
:00000001FF
