:100000000C9435000C945D000C945D000C945D0024
:100010000C945D000C945D000C945D000C945D00EC
:100020000C945D000C945D000C945D000C945D00DC
:100030000C945D000C945D000C945D000C945D00CC
:100040000C94F1030C945D000C9461040C943B043B
:100050000C945D000C945D000C945D000C945D00AC
:100060000C945D000C945D00820511241FBECFEF3F
:10007000D8E0DEBFCDBF11E0A0E0B1E0E2E8FDE0F6
:1000800002C005900D92AC3EB107D9F722E0ACEE6C
:10009000B1E001C01D92A63BB207E1F710E0C5E355
:1000A000D0E004C02197FE010E94B406C433D107FA
:1000B000C9F70E9493040C94BF060C9400003FB74C
:1000C000F8948091150290911602A0911702B091B8
:1000D000180226B5A89B05C02F3F19F00196A11D57
:1000E000B11D3FBFBA2FA92F982F8827820F911DCE
:1000F000A11DB11DBC01CD0142E0660F771F881F15
:10010000991F4A95D1F708958F929F92AF92BF920F
:10011000CF92DF92EF92FF926B017C010E945F0011
:100120004B015C01C114D104E104F104F1F00E941F
:100130005F00DC01CB0188199909AA09BB09883E37
:100140009340A105B10570F321E0C21AD108E1087E
:10015000F10888EE880E83E0981EA11CB11CC11422
:10016000D104E104F10419F7DDCFFF90EF90DF90A7
:10017000CF90BF90AF909F908F900895CF92DF92D5
:10018000EF92FF920F931F93CF93DF936C017A014D
:100190008B01C0E0D0E0CE15DF0581F0D8016D9174
:1001A0008D01D601ED91FC910190F081E02DC60109
:1001B0000995892B11F02196EECF7E01C701DF91C1
:1001C000CF911F910F91FF90EF90DF90CF90089506
:1001D000089580E090E00895FC01538D448D252F13
:1001E00030E0842F90E0821B930B541710F0CF96D1
:1001F000089501970895FC01918D828D981761F003
:10020000828DDF01A80FB11D5D968C91928D9F5F4D
:100210009F73928F90E008958FEF9FEF0895FC01F8
:10022000918D828D981731F0828DE80FF11D858DAB
:1002300090E008958FEF9FEF0895FC01918D228D3E
:10024000892F90E0805C9F4F821B91098F739927C3
:10025000089589E192E00E941D0121E0892B09F4B3
:1002600020E0822F0895FC01848DDF01A80FB11DCD
:10027000A35ABF4F2C91848D90E001968F739927DC
:10028000848FA689B7892C93A089B1898C918370BA
:1002900080648C93938D848D981306C00288F389B3
:1002A000E02D80818F7D80830895EF92FF920F93E0
:1002B0001F93CF93DF93EC0181E0888F9B8D8C8D12
:1002C000981305C0E889F989808185FD26C0F62E3E
:1002D0000B8D10E00F5F1F4F0F731127E02E8C8DD9
:1002E000E8120CC00FB607FCFACFE889F9898081C3
:1002F00085FFF5CFCE010E943301F1CF8B8DFE013A
:10030000E80FF11DE35AFF4FF0829FB7F8940B8F6F
:10031000EA89FB89808180620AC09FB7F894EE89E0
:10032000FF896083E889F989808183708064808394
:100330009FBF81E090E0DF91CF911F910F91FF90DF
:10034000EF900895CF93DF93EC01888D8823C9F057
:10035000EA89FB89808185FD05C0A889B9898C91CE
:1003600086FD0FC00FB607FCF5CF808185FFF2CF69
:10037000A889B9898C9185FFEDCFCE010E94330108
:10038000E7CFDF91CF91089580E090E0892B29F0AD
:100390000E94290181110C9400000895009769F0D2
:1003A000FC0101900020E9F73197AF01481B590B80
:1003B000BC0189E192E00C94BE0080E090E00895D9
:1003C0008F929F92AF92BF920F931F93CF93DF9321
:1003D000CDB7DEB7A1970FB6F894DEBF0FBECDBF85
:1003E00019A2423008F44AE08E010F5D1F4F842E9F
:1003F000912CA12CB12CA50194010E948306E62F1B
:10040000B901CA0101501109EA3014F4E05D01C0DC
:10041000E95CD801EC93232B242B252B61F7C80131
:100420000E94CE01A1960FB6F894DEBF0FBECDBFDD
:10043000DF91CF911F910F91BF90AF909F908F90C0
:100440000895CF92DF92EF92FF92CF93DF936B01EB
:100450007C016DE289E192E00E945501EC01662782
:100460007727CB016C197D098E099F094AE00E940C
:10047000E0018C0F9D1FDF91CF91FF90EF90DF90F7
:10048000CF9008950C94CE01CF93DF930E94CE01BC
:10049000EC0188E191E00E94CE018C0F9D1FDF915D
:1004A000CF910895DF92EF92FF920F931F93CF9316
:1004B000DF93D82E9CEEE92E91E0F92E00E010E0BB
:1004C0008BE191E00E944202C0E0D0E080910C02FA
:1004D00090910D0280179107B9F480910E029091CE
:1004E0000F028C179D0781F487E291E00E9442027F
:1004F00080910E0290910F020397B9F56AE089E1AD
:1005000092E00E94550131C0FE01EE0FFF1FEE0D7B
:10051000FF1D8081918182309105C9F02CF40097F4
:1005200099F0019761F01AC08930910599F08A30ED
:10053000910581F0059791F480E391E00DC0DD20F5
:1005400019F08AE291E008C084E291E005C08DE2F2
:1005500091E002C083E391E00E944202C330D105E2
:1005600021F483EC91E00E9442022196C430D1052F
:1005700009F0ACCF0F5F1F4F88E0E80EF11C04308C
:10058000110509F09DCF86E391E00E94420260913F
:10059000000170910101072E000C880B990B97FF49
:1005A00003C00E94210203C04AE00E94E00188E1EA
:1005B00091E0DF91CF911F910F91FF90EF90DF902D
:1005C0000C94CE01BC01990F880B990B97FD0C94EC
:1005D00021024AE00C94E0010F931F93CF93DF9325
:1005E0008DE391E00E94440289E192E00E941D01A6
:1005F000181619063CF064E670E080E090E00E9476
:100600008400F2CF89E192E00E94FB0000910C028D
:1006100010910D02C0910E02D0910F02873591F01A
:100620003CF48434B9F0833581F08134A9F410C0EE
:10063000843681F01CF4813659F00EC0833729F0DE
:10064000873751F4015011090DC00F5F1F4F0AC0C9
:10065000219708C0219606C089E591E00E944402D6
:100660000E94EC020430110518F4C430D10528F0C2
:1006700089E591E00E944402B3CF86E791E00E94B1
:10068000420280910C0290910D020E94E2028BE8DE
:1006900091E00E94420280910E0290910F020E940E
:1006A000E2028DE891E00E944202C8010E94E2024B
:1006B0008BE891E00E944202CE010E94E20284E9AE
:1006C00091E00E94420210930D0200930C02D0931D
:1006D0000F02C0930E02DF91CF911F910F910895E9
:1006E0000E94BA068F929F92AF92BF92CF92DF92F2
:1006F000EF92FF920F931F93CF93DF93ECEEF1E015
:10070000118210821382128215821482178216823D
:10071000389682E0EC30F80799F789E090E0909302
:10072000ED018093EC018AE090E090930B028093BE
:100730000A0282E090E09093010180930001109200
:100740000D0210920C0210920F0210920E02C0E0E5
:10075000D0E024E0822E912CA12CB12C01E010E0FD
:100760000E94FA05A50194010E9451066B017C01CB
:100770000E94FA05A50194010E945106CC0CDD1CD3
:10078000CC0CDD1C6C0D7D1D660F771FFB01E45149
:10079000FE4F8081918181309105E1F4C430D10513
:1007A000FCF268EB7BE080E090E00E94840088E946
:1007B00091E00E94440280E0DF91CF911F910F9160
:1007C000FF90EF90DF90CF90BF90AF909F908F9071
:1007D0000C9452020997029708F311830083219623
:1007E000DDCF1F920F920FB60F9211242F933F93DC
:1007F0008F939F93AF93BF938091110290911202B8
:10080000A0911302B09114023091100223E0230F43
:100810002D3720F40196A11DB11D05C026E8230F38
:100820000296A11DB11D2093100280931102909396
:100830001202A0931302B0931402809115029091BA
:100840001602A0911702B09118020196A11DB11DC8
:100850008093150290931602A0931702B09318028A
:10086000BF91AF919F918F913F912F910F900FBEAC
:100870000F901F9018951F920F920FB60F92112490
:100880002F933F934F935F936F937F938F939F9398
:10089000AF93BF93EF93FF9389E192E00E943301FE
:1008A000FF91EF91BF91AF919F918F917F916F9148
:1008B0005F914F913F912F910F900FBE0F901F901E
:1008C00018951F920F920FB60F9211242F938F93AA
:1008D0009F93EF93FF93E0912902F0912A02808188
:1008E000E0912F02F091300282FD12C09081809140
:1008F00032028F5F8F7320913302821751F0E091A3
:100900003202F0E0E75EFD4F958F8093320201C026
:100910008081FF91EF919F918F912F910F900FBE4A
:100920000F901F901895789484B5826084BD84B52B
:10093000816084BD85B5826085BD85B5816085BDDA
:1009400080916E00816080936E0010928100809192
:10095000810082608093810080918100816080931A
:100960008100809180008160809380008091B1003F
:1009700084608093B1008091B00081608093B0006A
:1009800080917A00846080937A0080917A008260FE
:1009900080937A0080917A00816080937A008091C0
:1009A0007A00806880937A001092C100E091290259
:1009B000F0912A0282E08083E0912502F0912602E4
:1009C0001082E0912702F09128028FEC8083109230
:1009D0003102E0912D02F0912E0286E08083E091B9
:1009E0002B02F0912C02808180618083E0912B02A8
:1009F000F0912C02808188608083E0912B02F0913D
:100A00002C02808180688083E0912B02F0912C027F
:100A100080818F7D808380E480937C0080917A0048
:100A2000806480937A0080917A0086FDFCCF60918B
:100A300078008091790070E0782B072E000C880BED
:100A4000990B611571058105910511F00E94480609
:100A50000E947203C2E0D0E005E010E00E94EC02C8
:100A6000E0910C02F0910D0280910E0290910F0224
:100A7000EE0FFF1FEE0FFF1FE80FF91FEE0FFF1F16
:100A8000E451FE4F808191818130910541F08A309F
:100A9000910501F1892B91F5118300832FC0D1833A
:100AA000C083809100019091010101979093010111
:100AB0008093000197FF22C081E00E9452028DEDD9
:100AC00091E00E9444028DED91E00E9444028DED80
:100AD00091E00DC081E00E94520285EC91E00E94FD
:100AE000440285EC91E00E94440285EC91E00E9472
:100AF00044020E9472030E94C401B0CF80E00E94B1
:100B00005202F9CFE9E1F2E01382128288EE93E01B
:100B1000A0E0B0E084839583A683B7838AE091E068
:100B20009183808385EC90E09587848784EC90E0C6
:100B30009787868780EC90E0918B808B81EC90E0AA
:100B4000938B828B82EC90E0958B848B86EC90E08B
:100B5000978B868B118E128E138E148E08958F9222
:100B60009F92AF92BF92CF92DF92EF92FF92CF937C
:100B7000DF93EC01688179818A819B816115710520
:100B80008105910521F464E279ED8BE597E02DE193
:100B900033EF41E050E00E94510649015A019B01A8
:100BA000AC01A7EAB1E40E9470066B017C01ACEED7
:100BB000B4EFA50194010E947E06DC01CB018C0DEF
:100BC0009D1DAE1DBF1DB7FF03C00197A109B04811
:100BD00088839983AA83BB83BC01CD019F77DF9172
:100BE000CF91FF90EF90DF90CF90BF90AF909F900C
:100BF0008F9008958F929F92AF92BF92CF92DF9283
:100C0000EF92FF92609102017091030180910401C3
:100C100090910501611571058105910521F464E24A
:100C200079ED8BE597E02DE133EF41E050E00E9454
:100C3000510649015A019B01AC01A7EAB1E40E94A7
:100C400070066B017C01ACEEB4EFA50194010E942B
:100C50007E06DC01CB018C0D9D1DAE1DBF1DB7FFB7
:100C600003C00197A109B04880930201909303014A
:100C7000A0930401B0930501BC01CD019F77FF90C3
:100C8000EF90DF90CF90BF90AF909F908F9008959E
:100C90006093020170930301809304019093050116
:100CA0000895052E97FB1EF400940E94680657FDD8
:100CB00007D00E94830607FC03D04EF40C9468060C
:100CC00050954095309521953F4F4F4F5F4F089578
:100CD00090958095709561957F4F8F4F9F4F0895A8
:100CE0000E94A506A59F900DB49F900DA49F800D16
:100CF000911D11240895B7FF0C9470060E94700690
:100D0000821B930B0895A1E21A2EAA1BBB1BFD01A7
:100D10000DC0AA1FBB1FEE1FFF1FA217B307E407DA
:100D2000F50720F0A21BB30BE40BF50B661F771F32
:100D3000881F991F1A9469F7609570958095909512
:100D40009B01AC01BD01CF010895A29FB001B39FEB
:100D5000C001A39F700D811D1124911DB29F700DC4
:100D6000811D1124911D0895EE0FFF1F0590F49130
:100D7000E02D099481E090E0F8940C94BF06F8947B
:020D8000FFCFA3
:100D8200010001000000000000005501BE00EC005F
:100D9200A2011D01FB000F010D0A002020202020CE
:100DA200202020202020004020002A20005820005F
:100DB2002E20003E20004C6966653A20000A0A3D5A
:100DC2003D3D2057616974696E6720666F722069C4
:100DD2006E707574203D3D3D00496E76616C6964AC
:100DE20020696E7075742E20506C65617365207277
:100DF200657472792E000A506C61796572206D6F8C
:100E02007665642066726F6D2028002C002920749C
:100E12006F202800292E0A000A0A2D2D2D2D2D2D96
:100E22002D2D2D2D2D2D2D2D2D204E455720474179
:100E32004D45202D2D2D2D2D2D2D2D2D2D2D2D2DB5
:100E42002D2D0A0A00436F6E67726174756C6174AE
:100E5200696F6E73212121212121212100424F4FEF
:0C0E62004F4F4F4F4F4F4F4F4F4D000070
:00000001FF
