:100000000C945C000C946E000C946E000C946E00CA
:100010000C946E000C946E000C946E000C946E00A8
:100020000C946E000C946E000C946E000C946E0098
:100030000C946E000C946E000C946E000C946E0088
:100040000C9418010C946E000C946E000C946E00CD
:100050000C946E000C946E000C946E000C946E0068
:100060000C946E000C946E00000000002400270029
:100070002A0000000000250028002B0004040404CE
:100080000404040402020202020203030303030342
:10009000010204081020408001020408102001021F
:1000A00004081020000000080002010000030407FB
:1000B000000000000000000011241FBECFEFD8E0B8
:1000C000DEBFCDBF21E0A0E0B1E001C01D92A930AC
:1000D000B207E1F70E9462010C94D9010C94000070
:1000E000E1EBF0E09491EDE9F0E02491E9E8F0E053
:1000F000E491EE2309F43CC0992339F1933091F057
:1001000038F49130A9F0923001F594B59F7D12C07A
:10011000973091F09830A1F09430B9F4909180002C
:100120009F7D03C0909180009F77909380000DC0C9
:1001300094B59F7794BD09C09091B0009F7703C09C
:100140009091B0009F7D9093B000F0E0EE0FFF1F04
:10015000EE58FF4FA591B4919FB7F894811104C058
:100160008C912095282302C0EC912E2B2C939FBFBD
:1001700008953FB7F8948091050190910601A091F0
:100180000701B091080126B5A89B05C02F3F19F0C3
:100190000196A11DB11D3FBFBA2FA92F982F882707
:1001A000820F911DA11DB11DBC01CD0142E0660F62
:1001B000771F881F991F4A95D1F708958F929F92B4
:1001C000AF92BF92CF92DF92EF92FF926B017C01D0
:1001D0000E94B9004B015C01C114D104E104F10497
:1001E000F1F00E94B900DC01CB0188199909AA0934
:1001F000BB09883E9340A105B10570F321E0C21A06
:10020000D108E108F10888EE880E83E0981EA11C51
:10021000B11CC114D104E104F10419F7DDCFFF9042
:10022000EF90DF90CF90BF90AF909F908F90089508
:100230001F920F920FB60F9211242F933F938F931B
:100240009F93AF93BF938091010190910201A09180
:100250000301B09104013091000123E0230F2D37F9
:1002600020F40196A11DB11D05C026E8230F0296BA
:10027000A11DB11D20930001809301019093020103
:10028000A0930301B09304018091050190910601B0
:10029000A0910701B09108010196A11DB11D8093A5
:1002A000050190930601A0930701B0930801BF9147
:1002B000AF919F918F913F912F910F900FBE0F9013
:1002C0001F901895789484B5826084BD84B5816050
:1002D00084BD85B5826085BD85B5816085BD809111
:1002E0006E00816080936E00109281008091810089
:1002F0008260809381008091810081608093810081
:10030000809180008160809380008091B100846042
:100310008093B1008091B00081608093B0008091A3
:100320007A00846080937A0080917A008260809362
:100330007A0080917A00816080937A0080917A00BF
:10034000806880937A001092C100EDE9F0E024917A
:10035000E9E8F0E08491882399F090E0880F991FF4
:10036000FC01E859FF4FA591B491FC01EE58FF4FF5
:10037000859194918FB7F894EC91E22BEC938FBF19
:10038000C0E0D0E081E00E94700060ED77E080E0A6
:1003900090E00E94DE0080E00E94700068EE73E052
:1003A00080E090E00E94DE00209761F30E94000050
:0603B000E9CFF894FFCF35
:00000001FF
