:100000000C945D000C9485000C9485000C94850084
:100010000C9485000C9485000C9485000C9485004C
:100020000C9485000C9485000C9485000C9485003C
:100030000C9485000C9485000C9485000C9485002C
:100040000C94BC020C9485000C942C030C940603B5
:100050000C9485000C9485000C9485000C9485000C
:100060000C945E030C94850000000000240027001F
:100070002A0000000000250028002B0004040404CE
:100080000404040402020202020203030303030342
:10009000010204081020408001020408102001021F
:1000A00004081020000000080002010000030407FB
:1000B00000000000000000008C0411241FBECFEFE0
:1000C000D8E0DEBFCDBF11E0A0E0B1E0E4E9FBE0A5
:1000D00002C005900D92A432B107D9F722E0A4E244
:1000E000B1E001C01D92AA36B207E1F710E0CDE5FC
:1000F000D0E004C02197FE010E94BD05CC35D10798
:10010000C9F70E94C5040C94C8050C94000090E047
:10011000FC01EC55FF4F2491FC01E057FF4F349157
:10012000FC01E458FF4FE491EE2309F43CC0222384
:1001300039F1233091F038F42130A9F0223001F563
:1001400084B58F7D12C0273091F02830A1F0243083
:10015000B9F4809180008F7D03C0809180008F77FB
:10016000809380000DC084B58F7784BD09C08091D5
:10017000B0008F7703C08091B0008F7D8093B00076
:10018000F0E0EE0FFF1FEE58FF4FA591B4919FB71F
:10019000F894611104C08C913095382302C0EC9121
:1001A0003E2B3C939FBF08953FB7F8948091BD01CB
:1001B0009091BE01A091BF01B091C00126B5A89B4E
:1001C00005C02F3F19F00196A11DB11D3FBFBA2FE9
:1001D000A92F982F8827820F911DA11DB11DBC0149
:1001E000CD0142E0660F771F881F991F4A95D1F70E
:1001F0000895CF92DF92EF92FF920F931F93CF93C8
:10020000DF936C017A018B01C0E0D0E0CE15DF05F1
:1002100081F0D8016D918D01D601ED91FC91019095
:10022000F081E02DC6010995892B11F02196EECFC2
:100230007E01C701DF91CF911F910F91FF90EF9049
:10024000DF90CF9008950895CF93DF93AC01E091B4
:10025000B601F091B7013097F1F09091B50180911E
:10026000B4019817C0F090E0292F30E02617370727
:1002700054F4D901AC5DBE4FEA01C20FD31F2881EF
:100280002C939F5FF1CF1092B5016093B401CB0125
:10029000DF91CF910994DF91CF910895FC01538DA7
:1002A000448D252F30E0842F90E0821B930B541750
:1002B00010F0CF96089501970895FC01918D828DDD
:1002C000981761F0828DDF01A80FB11D5D968C91AA
:1002D000928D9F5F9F73928F90E008958FEF9FEFB5
:1002E0000895FC01918D828D981731F0828DE80F71
:1002F000F11D858D90E008958FEF9FEF0895FC012B
:10030000918D228D892F90E0805C9F4F821B9109F7
:100310008F739927089581EC91E00E947F0121E07D
:10032000892B09F420E0822F0895FC01848DDF01E0
:10033000A80FB11DA35ABF4F2C91848D90E0019658
:100340008F739927848FA689B7892C93A089B18947
:100350008C91837080648C93938D848D981306C0E8
:100360000288F389E02D80818F7D80830895EF924C
:10037000FF920F931F93CF93DF93EC0181E0888F5F
:100380009B8D8C8D981305C0E889F989808185FD46
:1003900026C0F62E0B8D10E00F5F1F4F0F73112735
:1003A000E02E8C8DE8120CC00FB607FCFACFE8895E
:1003B000F989808185FFF5CFCE010E949501F1CFAB
:1003C0008B8DFE01E80FF11DE35AFF4FF0829FB7BE
:1003D000F8940B8FEA89FB89808180620AC09FB7FD
:1003E000F894EE89FF896083E889F98980818370B8
:1003F000806480839FBF81E090E0DF91CF911F9167
:100400000F91FF90EF900895CF93DF93EC01888DCB
:100410008823C9F0EA89FB89808185FD05C0A88908
:10042000B9898C9186FD0FC00FB607FCF5CF80818E
:1004300085FFF2CFA889B9898C9185FFEDCFCE01D8
:100440000E949501E7CFDF91CF91089580E090E081
:10045000892B29F00E948B0181110C9400000895D2
:1004600085ED8093BC008091BC0084FDFCCF109290
:10047000B101089540916401262F30E0240F311D11
:1004800021323105DCF42091B1012430C9F4FC01A2
:1004900080E090E0861758F4309164012191DC01EE
:1004A000AC5BBE4FA30FB11D2C930196F3CF80918F
:1004B0006401680F6093640180E0089581E008950D
:1004C00082E008950895E091B5018091B401E817A4
:1004D00030F4F0E0EC5DFE4F808190E008958FEF06
:1004E0009FEF08959091B5018091B401981750F451
:1004F000E92FF0E0EC5DFE4F208130E09F5F9093AC
:10050000B50102C02FEF3FEFC90108958091B401FA
:1005100090E02091B501821B91090895CF93DF935C
:10052000CB01EA01642F0E943A02CE01DF91CF9104
:100530000895CF93DF931F92CDB7DEB7698361E053
:10054000CE0101960E943A0281E090E00F90DF9187
:10055000CF910895089580E090E008958EE592E0AF
:100560000E9472028F3411F461E001C060E08DE0FE
:100570000C9487000E94C3051F920F920FB60F9232
:1005800011242F933F938F939F93AF93BF938091A9
:10059000B9019091BA01A091BB01B091BC01309119
:1005A000B80123E0230F2D3720F40196A11DB11DC2
:1005B00005C026E8230F0296A11DB11D2093B801A6
:1005C0008093B9019093BA01A093BB01B093BC0191
:1005D0008091BD019091BE01A091BF01B091C00179
:1005E0000196A11DB11D8093BD019093BE01A09302
:1005F000BF01B093C001BF91AF919F918F913F9187
:100600002F910F900FBE0F901F9018951F920F9271
:100610000FB60F9211242F933F934F935F936F93D5
:100620007F938F939F93AF93BF93EF93FF9381EC4F
:1006300091E00E949501FF91EF91BF91AF919F9141
:100640008F917F916F915F914F913F912F910F907B
:100650000FBE0F901F9018951F920F920FB60F921A
:1006600011242F938F939F93EF93FF93E091D101E8
:10067000F091D2018081E091D701F091D80182FD03
:1006800012C090818091DA018F5F8F732091DB011E
:10069000821751F0E091DA01F0E0EF53FE4F958FB1
:1006A0008093DA0101C08081FF91EF919F918F913A
:1006B0002F910F900FBE0F901F9018951F920F92C1
:1006C0000FB60F9211242F933F934F935F936F9325
:1006D0007F938F939F93AF93BF93EF93FF938091FB
:1006E000B900887F803609F49CC068F5883209F427
:1006F0005BC090F4803109F454C038F4882309F4C5
:10070000F6C0883009F44DC0F6C0883109F44CC0F9
:10071000803209F45DC0EFC0803409F468C048F449
:10072000803309F455C0883309F0E5C08093870110
:10073000D8C0803509F44FC0883509F45DC08834CD
:1007400009F0D9C0D6C0883909F4C7C0A8F48837E1
:1007500009F467C038F4883609F463C0803709F4B7
:1007600060C0C9C0883809F4B8C0803909F45FC0D6
:10077000803809F0C0C05BC0803B09F486C038F403
:10078000803A09F466C0883A09F47FC0B4C0803C5E
:1007900009F4A7C0883C09F4A4C0883B09F48AC0C6
:1007A000AAC08091AA0110C09091A9018091A801CE
:1007B000981770F5E091A90181E08E0F8093A9014F
:1007C000F0E0E857FE4F80818093BB0085EC86C047
:1007D000809387018EC0E091A90181E08E0F809304
:1007E000A9018091BB00F0E0E857FE4F8083909113
:1007F000A9018091A8016EC0E091A90181E08E0F4E
:100800008093A9018091BB00F0E0E857FE4F808300
:100810008091B00181116DC081E08093AF0184EAC5
:1008200061C083E08093B10110928601CFCF8091A7
:100830008601803208F051C0E091860181E08E0F80
:10084000809386018091BB00F0E0EA59FE4F8083DF
:10085000BDCF85EC8093BC001092B10180918601E0
:10086000803230F4E0918601F0E0EA59FE4F1082C8
:100870006091860170E0E091AB01F091AC0186E6F9
:1008800091E009951092860136C084E08093B10111
:100890001092650110926401E091AD01F091AE01FA
:1008A000099580916401811105C081E08093640104
:1008B00010924401E091650181E08E0F8093650103
:1008C000F0E0EC5BFE4F80818093BB00909165016E
:1008D00080916401981708F479CF85E88093BC0073
:1008E0000AC085EC8093BC001092B10104C0109244
:1008F00087010E943002FF91EF91BF91AF919F91CC
:100900008F917F916F915F914F913F912F910F90B8
:100910000FBE0F901F901895E1ECF1E01382128248
:1009200088EE93E0A0E0B0E084839583A683B7834C
:1009300024E031E03183208325EC30E035872487C3
:1009400024EC30E03787268720EC30E0318B208B99
:1009500021EC30E0338B228B22EC30E0358B248B82
:1009600026EC30E0378B268B118E128E138E148E70
:10097000EEE5F2E01382128284839583A683B78327
:1009800086E191E0918380830895789484B58260B4
:1009900084BD84B5816084BD85B5826085BD85B523
:1009A000816085BD80916E00816080936E001092A1
:1009B000810080918100826080938100809181001C
:1009C00081608093810080918000816080938000AD
:1009D0008091B10084608093B1008091B00081600B
:1009E0008093B00080917A00846080937A00809137
:1009F0007A00826080937A0080917A00816080938F
:100A00007A0080917A00806880937A001092C10009
:100A10001092B5011092B4011092B3011092B2017C
:100A20001092B10181E08093B0011092AF0161E0BA
:100A300082E10E94870061E083E10E94870080914B
:100A4000B9008E7F8093B9008091B9008D7F80932B
:100A5000B90088E48093B80085E48093BC0083E209
:100A600091E09093AE018093AD0184E291E0909388
:100A7000AC018093AB0188E08093BA008EEA92E0EB
:100A80009093B7018093B601E091D101F091D2012A
:100A900082E08083E091CD01F091CE011082E0915F
:100AA000CF01F091D0018FEC80831092D901E091B9
:100AB000D501F091D60186E08083E091D301F091D9
:100AC000D401808180618083E091D301F091D401D1
:100AD000808188608083E091D301F091D40180818E
:100AE00080688083E091D301F091D40180818F7D73
:100AF0008083EDE9F0E02491E9E8F0E08491882337
:100B000099F090E0880F991FFC01E859FF4FA591DB
:100B1000B491FC01EE58FF4F859194918FB7F894F2
:100B2000EC91E22BEC938FBF0E94D4004B015C014F
:100B300082E3C82ED12CE12CF12C0E94D400DC01E0
:100B4000CB0188199909AA09BB09883E9340A105E0
:100B5000B10598F321E0C21AD108E108F10888EE46
:100B6000880E83E0981EA11CB11CC114D104E104BD
:100B7000F10419F70E942602D7CFEE0FFF1F059050
:100B8000F491E02D099481E090E0F8940C94C8056C
:040B9000F894FFCF07
:100B940000000000B701F9004E0104027F015D016D
:100BA40071010000000099028E02AB02620286020B
:040BB4007202630264
:00000001FF
