:100000000C945D000C9485000C9485000C94850084
:100010000C9485000C9485000C9485000C9485004C
:100020000C9485000C9485000C9485000C9485003C
:100030000C9485000C9485000C9485000C9485002C
:100040000C94E7020C9485000C9457030C94310334
:100050000C9485000C9485000C9485000C9485000C
:100060000C9489030C9485000000000024002700F4
:100070002A0000000000250028002B0004040404CE
:100080000404040402020202020203030303030342
:10009000010204081020408001020408102001021F
:1000A00004081020000000080002010000030407FB
:1000B0000000000000000000B70411241FBECFEFB5
:1000C000D8E0DEBFCDBF11E0A0E0B1E0EAEEFBE09A
:1000D00002C005900D92AE32B107D9F722E0AEE230
:1000E000B1E001C01D92A437B207E1F710E0CDE501
:1000F000D0E004C02197FE010E94E805CC35D1076D
:10010000C9F70E94F0040C94F3050C94000090E0F1
:10011000FC01EC55FF4F2491FC01E057FF4F349157
:10012000FC01E458FF4FE491EE2309F43CC0222384
:1001300039F1233091F038F42130A9F0223001F563
:1001400084B58F7D12C0273091F02830A1F0243083
:10015000B9F4809180008F7D03C0809180008F77FB
:10016000809380000DC084B58F7784BD09C08091D5
:10017000B0008F7703C08091B0008F7D8093B00076
:10018000F0E0EE0FFF1FEE58FF4FA591B4919FB71F
:10019000F894611104C08C913095382302C0EC9121
:1001A0003E2B3C939FBF08953FB7F8948091C701C1
:1001B0009091C801A091C901B091CA0126B5A89B30
:1001C00005C02F3F19F00196A11DB11D3FBFBA2FE9
:1001D000A92F982F8827820F911DA11DB11DBC0149
:1001E000CD0142E0660F771F881F991F4A95D1F70E
:1001F0000895CF92DF92EF92FF920F931F93CF93C8
:10020000DF936C017A018B01C0E0D0E0CE15DF05F1
:1002100081F0D8016D918D01D601ED91FC91019095
:10022000F081E02DC6010995892B11F02196EECFC2
:100230007E01C701DF91CF911F910F91FF90EF9049
:10024000DF90CF9008950895CF93DF93AC01E091B4
:10025000C001F091C1013097F1F09091BF01809100
:10026000BE019817C0F090E0292F30E0261737071D
:1002700054F4D901A25DBE4FEA01C20FD31F2881F9
:100280002C939F5FF1CF1092BF016093BE01CB0111
:10029000DF91CF910994DF91CF910895FC01538DA7
:1002A000448D252F30E0842F90E0821B930B541750
:1002B00010F0CF96089501970895FC01918D828DDD
:1002C000981761F0828DDF01A80FB11D5D968C91AA
:1002D000928D9F5F9F73928F90E008958FEF9FEFB5
:1002E0000895FC01918D828D981731F0828DE80F71
:1002F000F11D858D90E008958FEF9FEF0895FC012B
:10030000918D228D892F90E0805C9F4F821B9109F7
:100310008F73992708958BEC91E00E947F0121E073
:10032000892B09F420E0822F0895FC01848DDF01E0
:10033000A80FB11DA35ABF4F2C91848D90E0019658
:100340008F739927848FA689B7892C93A089B18947
:100350008C91837080648C93938D848D981306C0E8
:100360000288F389E02D80818F7D80830895EF924C
:10037000FF920F931F93CF93DF93EC0181E0888F5F
:100380009B8D8C8D981305C0E889F989808185FD46
:1003900026C0F62E0B8D10E00F5F1F4F0F73112735
:1003A000E02E8C8DE8120CC00FB607FCFACFE8895E
:1003B000F989808185FFF5CFCE010E949501F1CFAB
:1003C0008B8DFE01E80FF11DE35AFF4FF0829FB7BE
:1003D000F8940B8FEA89FB89808180620AC09FB7FD
:1003E000F894EE89FF896083E889F98980818370B8
:1003F000806480839FBF81E090E0DF91CF911F9167
:100400000F91FF90EF900895CF93DF93EC01888DCB
:100410008823C9F0EA89FB89808185FD05C0A88908
:10042000B9898C9186FD0FC00FB607FCF5CF80818E
:1004300085FFF2CFA889B9898C9185FFEDCFCE01D8
:100440000E949501E7CFDF91CF91089580E090E081
:10045000892B29F00E948B0181110C9400000895D2
:1004600085ED8093BC008091BC0084FDFCCF109290
:10047000BB01089540916E01262F30E0240F311DFD
:1004800021323105DCF42091BB012430C9F4FC0198
:1004900080E090E0861758F430916E012191DC01E4
:1004A000A25BBE4FA30FB11D2C930196F3CF809199
:1004B0006E01680F60936E0180E0089581E00895F9
:1004C00082E008950895E091BF018091BE01E81790
:1004D00030F4F0E0E25DFE4F808190E008958FEF10
:1004E0009FEF08959091BF018091BE01981750F43D
:1004F000E92FF0E0E25DFE4F208130E09F5F9093B6
:10050000BF0102C02FEF3FEFC90108958091BE01E6
:1005100090E02091BF01821B91090895CF93DF9352
:10052000CB01EA01642F0E943A02CE01DF91CF9104
:100530000895CF93DF931F92CDB7DEB7698361E053
:10054000CE0101960E943A0281E090E00F90DF9187
:10055000CF910895089580E090E00895CF93DF93C0
:10056000009779F0FC0101900020E9F73197AF0185
:10057000481B590BBC018BEC91E00E94F900EC0187
:1005800002C0C0E0D0E042E050E064E271E08BECF9
:1005900091E00E94F9008C0F9D1FDF91CF9108958B
:1005A00088E692E00E9472028F3439F461E089E0BB
:1005B0000E94870087E291E006C060E089E00E9427
:1005C00087008AE291E00C94AE020E94EE051F9231
:1005D0000F920FB60F9211242F933F938F939F93F7
:1005E000AF93BF938091C3019091C401A091C501C5
:1005F000B091C6013091C20123E0230F2D3720F4C2
:100600000196A11DB11D05C026E8230F0296A11D6C
:10061000B11D2093C2018093C3019093C401A093A4
:10062000C501B093C6018091C7019091C801A09106
:10063000C901B091CA010196A11DB11D8093C701E6
:100640009093C801A093C901B093CA01BF91AF9123
:100650009F918F913F912F910F900FBE0F901F9000
:1006600018951F920F920FB60F9211242F933F935C
:100670004F935F936F937F938F939F93AF93BF93AA
:10068000EF93FF938BEC91E00E949501FF91EF9126
:10069000BF91AF919F918F917F916F915F914F919A
:1006A0003F912F910F900FBE0F901F9018951F92A2
:1006B0000F920FB60F9211242F938F939F93EF9366
:1006C000FF93E091DB01F091DC018081E091E10199
:1006D000F091E20182FD12C090818091E4018F5F70
:1006E0008F732091E501821751F0E091E401F0E071
:1006F000E553FE4F958F8093E40101C08081FF9107
:10070000EF919F918F912F910F900FBE0F901F909F
:1007100018951F920F920FB60F9211242F933F93AB
:100720004F935F936F937F938F939F93AF93BF93F9
:10073000EF93FF938091B900887F803609F49CC0C5
:1007400068F5883209F45BC090F4803109F454C034
:1007500038F4882309F4F6C0883009F44DC0F6C097
:10076000883109F44CC0803209F45DC0EFC0803498
:1007700009F468C048F4803309F455C0883309F09F
:10078000E5C080939101D8C0803509F44FC0883509
:1007900009F45DC0883409F0D9C0D6C0883909F49D
:1007A000C7C0A8F4883709F467C038F4883609F45C
:1007B00063C0803709F460C0C9C0883809F4B8C084
:1007C000803909F45FC0803809F0C0C05BC0803B4D
:1007D00009F486C038F4803A09F466C0883A09F40E
:1007E0007FC0B4C0803C09F4A7C0883C09F4A4C011
:1007F000883B09F48AC0AAC08091B40110C09091CE
:10080000B3018091B201981770F5E091B30181E0D6
:100810008E0F8093B301F0E0EE56FE4F80818093FF
:10082000BB0085EC86C0809391018EC0E091B3013E
:1008300081E08E0F8093B3018091BB00F0E0EE5613
:10084000FE4F80839091B3018091B2016EC0E09120
:10085000B30181E08E0F8093B3018091BB00F0E083
:10086000EE56FE4F80838091BA0181116DC081E008
:100870008093B90184EA61C083E08093BB01109248
:100880009001CFCF80919001803208F051C0E0916B
:10089000900181E08E0F809390018091BB00F0E089
:1008A000E059FE4F8083BDCF85EC8093BC00109251
:1008B000BB0180919001803230F4E0919001F0E032
:1008C000E059FE4F10826091900170E0E091B50117
:1008D000F091B60180E791E009951092900136C041
:1008E00084E08093BB0110926F0110926E01E09141
:1008F000B701F091B801099580916E01811105C091
:1009000081E080936E0110924E01E0916F0181E0D1
:100910008E0F80936F01F0E0E25BFE4F8081809349
:10092000BB0090916F0180916E01981708F479CF08
:1009300085E88093BC000AC085EC8093BC001092CF
:10094000BB0104C0109291010E943002FF91EF910F
:10095000BF91AF919F918F917F916F915F914F91D7
:100960003F912F910F900FBE0F901F901895EBECB9
:10097000F1E01382128288EE93E0A0E0B0E084837D
:100980009583A683B78324E031E03183208325EC6F
:1009900030E03587248724EC30E03787268720EC49
:1009A00030E0318B208B21EC30E0338B228B22EC3A
:1009B00030E0358B248B26EC30E0378B268B118E84
:1009C000128E138E148EE8E6F2E013821282848374
:1009D0009583A683B78386E191E091838083089510
:1009E000789484B5826084BD84B5816084BD85B50A
:1009F000826085BD85B5816085BD80916E00816016
:100A000080936E00109281008091810082608093BB
:100A100081008091810081608093810080918000BD
:100A20008160809380008091B10084608093B100E8
:100A30008091B00081608093B00080917A008460E2
:100A400080937A0080917A00826080937A0080910E
:100A50007A00816080937A0080917A008068809328
:100A60007A001092C1001092BF011092BE01109244
:100A7000BD011092BC011092BB0181E08093BA01CC
:100A80001092B90161E082E10E94870061E083E198
:100A90000E9487008091B9008E7F8093B900809179
:100AA000B9008D7F8093B90088E48093B80085E415
:100AB0008093BC0083E291E09093B8018093B701EA
:100AC00084E291E09093B6018093B50188E0809331
:100AD000BA0080ED92E09093C1018093C001E09153
:100AE000DB01F091DC0182E08083E091D701F0919D
:100AF000D8011082E091D901F091DA018FEC808366
:100B00001092E301E091DF01F091E00186E0808343
:100B1000E091DD01F091DE01808180618083E091D0
:100B2000DD01F091DE01808188608083E091DD014C
:100B3000F091DE01808180688083E091DD01F09199
:100B4000DE0180818F7D8083E9E9F0E02491E5E892
:100B5000F0E08491882399F090E0880F991FFC01C0
:100B6000E859FF4FA591B491FC01EE58FF4F8591D4
:100B700094918FB7F894EC91E22BEC938FBF0E9485
:100B8000D4004B015C0182E3C82ED12CE12CF12C66
:100B90000E94D400DC01CB0188199909AA09BB097C
:100BA000883E9340A105B10598F321E0C21AD1080F
:100BB000E108F10888EE880E83E0981EA11CB11CA4
:100BC000C114D104E104F10419F70E942602D7CF21
:100BD000EE0FFF1F0590F491E02D099481E090E065
:0A0BE000F8940C94F305F894FFCF8D
:100BEA0000000000B701F9004E0104027F015D0117
:100BFA0071010000000099028E02AB0262028602B5
:0E0C0A00720263020D0A004F4E004F46460074
:00000001FF
